{
  "contractName": "DronesERC721",
  "abi": [
    {
      "inputs": [
        {
          "internalType": "address",
          "name": "_addressEternalDronesStorage",
          "type": "address"
        }
      ],
      "stateMutability": "nonpayable",
      "type": "constructor"
    },
    {
      "anonymous": false,
      "inputs": [
        {
          "indexed": true,
          "internalType": "address",
          "name": "owner",
          "type": "address"
        },
        {
          "indexed": true,
          "internalType": "address",
          "name": "approved",
          "type": "address"
        },
        {
          "indexed": true,
          "internalType": "uint256",
          "name": "tokenId",
          "type": "uint256"
        }
      ],
      "name": "Approval",
      "type": "event"
    },
    {
      "anonymous": false,
      "inputs": [
        {
          "indexed": true,
          "internalType": "address",
          "name": "owner",
          "type": "address"
        },
        {
          "indexed": true,
          "internalType": "address",
          "name": "operator",
          "type": "address"
        },
        {
          "indexed": false,
          "internalType": "bool",
          "name": "approved",
          "type": "bool"
        }
      ],
      "name": "ApprovalForAll",
      "type": "event"
    },
    {
      "anonymous": false,
      "inputs": [
        {
          "indexed": true,
          "internalType": "address",
          "name": "previousOwner",
          "type": "address"
        },
        {
          "indexed": true,
          "internalType": "address",
          "name": "newOwner",
          "type": "address"
        }
      ],
      "name": "OwnershipTransferred",
      "type": "event"
    },
    {
      "anonymous": false,
      "inputs": [
        {
          "indexed": true,
          "internalType": "address",
          "name": "from",
          "type": "address"
        },
        {
          "indexed": true,
          "internalType": "address",
          "name": "to",
          "type": "address"
        },
        {
          "indexed": true,
          "internalType": "uint256",
          "name": "tokenId",
          "type": "uint256"
        }
      ],
      "name": "Transfer",
      "type": "event"
    },
    {
      "inputs": [],
      "name": "owner",
      "outputs": [
        {
          "internalType": "address",
          "name": "",
          "type": "address"
        }
      ],
      "stateMutability": "view",
      "type": "function"
    },
    {
      "inputs": [],
      "name": "renounceOwnership",
      "outputs": [],
      "stateMutability": "nonpayable",
      "type": "function"
    },
    {
      "inputs": [
        {
          "internalType": "address",
          "name": "newOwner",
          "type": "address"
        }
      ],
      "name": "transferOwnership",
      "outputs": [],
      "stateMutability": "nonpayable",
      "type": "function"
    },
    {
      "inputs": [
        {
          "internalType": "address",
          "name": "_addressEternalDronesStorage",
          "type": "address"
        }
      ],
      "name": "initialize",
      "outputs": [],
      "stateMutability": "nonpayable",
      "type": "function"
    },
    {
      "inputs": [
        {
          "internalType": "bytes4",
          "name": "interfaceId",
          "type": "bytes4"
        }
      ],
      "name": "supportsInterface",
      "outputs": [
        {
          "internalType": "bool",
          "name": "",
          "type": "bool"
        }
      ],
      "stateMutability": "view",
      "type": "function"
    },
    {
      "inputs": [
        {
          "internalType": "address",
          "name": "owner",
          "type": "address"
        }
      ],
      "name": "balanceOf",
      "outputs": [
        {
          "internalType": "uint256",
          "name": "",
          "type": "uint256"
        }
      ],
      "stateMutability": "view",
      "type": "function"
    },
    {
      "inputs": [
        {
          "internalType": "uint256",
          "name": "tokenId",
          "type": "uint256"
        }
      ],
      "name": "ownerOf",
      "outputs": [
        {
          "internalType": "address",
          "name": "",
          "type": "address"
        }
      ],
      "stateMutability": "view",
      "type": "function"
    },
    {
      "inputs": [
        {
          "internalType": "address",
          "name": "from",
          "type": "address"
        },
        {
          "internalType": "address",
          "name": "to",
          "type": "address"
        },
        {
          "internalType": "uint256",
          "name": "tokenId",
          "type": "uint256"
        }
      ],
      "name": "transferFrom",
      "outputs": [],
      "stateMutability": "nonpayable",
      "type": "function"
    },
    {
      "inputs": [
        {
          "internalType": "address",
          "name": "to",
          "type": "address"
        },
        {
          "internalType": "uint256",
          "name": "tokenId",
          "type": "uint256"
        }
      ],
      "name": "approve",
      "outputs": [],
      "stateMutability": "nonpayable",
      "type": "function"
    },
    {
      "inputs": [
        {
          "internalType": "uint256",
          "name": "tokenId",
          "type": "uint256"
        }
      ],
      "name": "getApproved",
      "outputs": [
        {
          "internalType": "address",
          "name": "",
          "type": "address"
        }
      ],
      "stateMutability": "view",
      "type": "function"
    },
    {
      "inputs": [
        {
          "internalType": "address",
          "name": "operator",
          "type": "address"
        },
        {
          "internalType": "bool",
          "name": "_approved",
          "type": "bool"
        }
      ],
      "name": "setApprovalForAll",
      "outputs": [],
      "stateMutability": "nonpayable",
      "type": "function"
    },
    {
      "inputs": [
        {
          "internalType": "address",
          "name": "owner",
          "type": "address"
        },
        {
          "internalType": "address",
          "name": "operator",
          "type": "address"
        }
      ],
      "name": "isApprovedForAll",
      "outputs": [
        {
          "internalType": "bool",
          "name": "",
          "type": "bool"
        }
      ],
      "stateMutability": "view",
      "type": "function"
    },
    {
      "inputs": [
        {
          "internalType": "address",
          "name": "from",
          "type": "address"
        },
        {
          "internalType": "address",
          "name": "to",
          "type": "address"
        },
        {
          "internalType": "uint256",
          "name": "tokenId",
          "type": "uint256"
        }
      ],
      "name": "safeTransferFrom",
      "outputs": [],
      "stateMutability": "nonpayable",
      "type": "function"
    },
    {
      "inputs": [
        {
          "internalType": "address",
          "name": "from",
          "type": "address"
        },
        {
          "internalType": "address",
          "name": "to",
          "type": "address"
        },
        {
          "internalType": "uint256",
          "name": "tokenId",
          "type": "uint256"
        },
        {
          "internalType": "bytes",
          "name": "data",
          "type": "bytes"
        }
      ],
      "name": "safeTransferFrom",
      "outputs": [],
      "stateMutability": "nonpayable",
      "type": "function"
    },
    {
      "inputs": [],
      "name": "name",
      "outputs": [
        {
          "internalType": "string",
          "name": "",
          "type": "string"
        }
      ],
      "stateMutability": "view",
      "type": "function"
    },
    {
      "inputs": [],
      "name": "symbol",
      "outputs": [
        {
          "internalType": "string",
          "name": "",
          "type": "string"
        }
      ],
      "stateMutability": "view",
      "type": "function"
    },
    {
      "inputs": [
        {
          "internalType": "uint256",
          "name": "tokenId",
          "type": "uint256"
        }
      ],
      "name": "tokenURI",
      "outputs": [
        {
          "internalType": "string",
          "name": "",
          "type": "string"
        }
      ],
      "stateMutability": "view",
      "type": "function"
    },
    {
      "inputs": [
        {
          "internalType": "uint256",
          "name": "_alturaMaxima",
          "type": "uint256"
        },
        {
          "internalType": "uint256",
          "name": "_alturaMinima",
          "type": "uint256"
        },
        {
          "internalType": "uint256",
          "name": "_coste",
          "type": "uint256"
        },
        {
          "internalType": "uint256",
          "name": "_pesticidaAceptado",
          "type": "uint256"
        }
      ],
      "name": "mint",
      "outputs": [
        {
          "internalType": "bool",
          "name": "",
          "type": "bool"
        }
      ],
      "stateMutability": "nonpayable",
      "type": "function"
    },
    {
      "inputs": [
        {
          "internalType": "address",
          "name": "_owner",
          "type": "address"
        }
      ],
      "name": "getDronesIdByOwner",
      "outputs": [
        {
          "internalType": "uint256[]",
          "name": "",
          "type": "uint256[]"
        }
      ],
      "stateMutability": "view",
      "type": "function"
    },
    {
      "inputs": [
        {
          "internalType": "uint256",
          "name": "_dronId",
          "type": "uint256"
        }
      ],
      "name": "getDronSpecification",
      "outputs": [
        {
          "components": [
            {
              "internalType": "uint256",
              "name": "alturaMaxima",
              "type": "uint256"
            },
            {
              "internalType": "uint256",
              "name": "alturaMinima",
              "type": "uint256"
            },
            {
              "internalType": "uint256",
              "name": "coste",
              "type": "uint256"
            },
            {
              "internalType": "enum DataLibrary.Pesticidas",
              "name": "pesticidaAceptado",
              "type": "uint8"
            }
          ],
          "internalType": "struct DataLibrary.Dron",
          "name": "",
          "type": "tuple"
        }
      ],
      "stateMutability": "view",
      "type": "function"
    }
  ],
  "bytecode": "0x60806040523480156200001157600080fd5b5060405162003dcb38038062003dcb833981810160405281019062000037919062000182565b620000576200004b6200009f60201b60201c565b620000a760201b60201c565b80600160006101000a81548173ffffffffffffffffffffffffffffffffffffffff021916908373ffffffffffffffffffffffffffffffffffffffff1602179055505062000207565b600033905090565b60008060009054906101000a900473ffffffffffffffffffffffffffffffffffffffff169050816000806101000a81548173ffffffffffffffffffffffffffffffffffffffff021916908373ffffffffffffffffffffffffffffffffffffffff1602179055508173ffffffffffffffffffffffffffffffffffffffff168173ffffffffffffffffffffffffffffffffffffffff167f8be0079c531659141344cd1fd0a4f28419497f9722a3daafe3b4186f6b6457e060405160405180910390a35050565b6000815190506200017c81620001ed565b92915050565b6000602082840312156200019b576200019a620001e8565b5b6000620001ab848285016200016b565b91505092915050565b6000620001c182620001c8565b9050919050565b600073ffffffffffffffffffffffffffffffffffffffff82169050919050565b600080fd5b620001f881620001b4565b81146200020457600080fd5b50565b613bb480620002176000396000f3fe608060405234801561001057600080fd5b506004361061012c5760003560e01c8063715018a6116100ad578063c4d66de811610071578063c4d66de814610341578063c87b56dd1461035d578063d19c21851461038d578063e985e9c5146103bd578063f2fde38b146103ed5761012c565b8063715018a6146102c35780638da5cb5b146102cd57806395d89b41146102eb578063a22cb46514610309578063b88d4fde146103255761012c565b80633c0cad35116100f45780633c0cad35146101e757806342842e0e146102175780636352211e146102335780636582ccd31461026357806370a08231146102935761012c565b806301ffc9a71461013157806306fdde0314610161578063081812fc1461017f578063095ea7b3146101af57806323b872dd146101cb575b600080fd5b61014b60048036038101906101469190612988565b610409565b6040516101589190613015565b60405180910390f35b6101696104eb565b6040516101769190613030565b60405180910390f35b61019960048036038101906101949190612a58565b610597565b6040516101a69190612f03565b60405180910390f35b6101c960048036038101906101c491906128d2565b610693565b005b6101e560048036038101906101e091906127bc565b610789565b005b61020160048036038101906101fc9190612a58565b6107e9565b60405161020e9190613232565b60405180910390f35b610231600480360381019061022c91906127bc565b6108eb565b005b61024d60048036038101906102489190612a58565b61090b565b60405161025a9190612f03565b60405180910390f35b61027d60048036038101906102789190612ab2565b610a34565b60405161028a9190613015565b60405180910390f35b6102ad60048036038101906102a89190612722565b610b7e565b6040516102ba919061324d565b60405180910390f35b6102cb610ca1565b005b6102d5610d29565b6040516102e29190612f03565b60405180910390f35b6102f3610d52565b6040516103009190613030565b60405180910390f35b610323600480360381019061031e9190612892565b610dfe565b005b61033f600480360381019061033a919061280f565b610e14565b005b61035b60048036038101906103569190612722565b610e76565b005b61037760048036038101906103729190612a58565b610f36565b6040516103849190613030565b60405180910390f35b6103a760048036038101906103a29190612722565b610fdd565b6040516103b49190612ff3565b60405180910390f35b6103d760048036038101906103d2919061277c565b611096565b6040516103e49190613015565b60405180910390f35b61040760048036038101906104029190612722565b61114d565b005b60007f80ac58cd000000000000000000000000000000000000000000000000000000007bffffffffffffffffffffffffffffffffffffffffffffffffffffffff1916827bffffffffffffffffffffffffffffffffffffffffffffffffffffffff191614806104d457507f5b5e139f000000000000000000000000000000000000000000000000000000007bffffffffffffffffffffffffffffffffffffffffffffffffffffffff1916827bffffffffffffffffffffffffffffffffffffffffffffffffffffffff1916145b806104e457506104e382611245565b5b9050919050565b6060600160009054906101000a900473ffffffffffffffffffffffffffffffffffffffff1673ffffffffffffffffffffffffffffffffffffffff166317d7de7c6040518163ffffffff1660e01b815260040160006040518083038186803b15801561055557600080fd5b505afa158015610569573d6000803e3d6000fd5b505050506040513d6000823e3d601f19601f8201168201806040525081019061059291906129e2565b905090565b60006105a2826112af565b6105e1576040517f08c379a00000000000000000000000000000000000000000000000000000000081526004016105d890613192565b60405180910390fd5b600160009054906101000a900473ffffffffffffffffffffffffffffffffffffffff1673ffffffffffffffffffffffffffffffffffffffff1663fe4dd8d9836040518263ffffffff1660e01b815260040161063c919061324d565b60206040518083038186803b15801561065457600080fd5b505afa158015610668573d6000803e3d6000fd5b505050506040513d601f19601f8201168201806040525081019061068c919061274f565b9050919050565b600160009054906101000a900473ffffffffffffffffffffffffffffffffffffffff1673ffffffffffffffffffffffffffffffffffffffff166345a0feb983836040518363ffffffff1660e01b81526004016106f0929190612fca565b600060405180830381600087803b15801561070a57600080fd5b505af115801561071e573d6000803e3d6000fd5b50505050808273ffffffffffffffffffffffffffffffffffffffff166107438361090b565b73ffffffffffffffffffffffffffffffffffffffff167f8c5be1e5ebec7d5bd14f71427d1e84f3dd0314c0f7b2291e5b200ac8c7c3b92560405160405180910390a45050565b61079a610794611392565b8261139a565b6107d9576040517f08c379a00000000000000000000000000000000000000000000000000000000081526004016107d090613212565b60405180910390fd5b6107e4838383611478565b505050565b6107f1612435565b6107fa826112af565b610839576040517f08c379a0000000000000000000000000000000000000000000000000000000008152600401610830906131f2565b60405180910390fd5b600160009054906101000a900473ffffffffffffffffffffffffffffffffffffffff1673ffffffffffffffffffffffffffffffffffffffff16633c0cad35836040518263ffffffff1660e01b8152600401610894919061324d565b60806040518083038186803b1580156108ac57600080fd5b505afa1580156108c0573d6000803e3d6000fd5b505050506040513d601f19601f820116820180604052508101906108e49190612a2b565b9050919050565b61090683838360405180602001604052806000815250610e14565b505050565b600080600160009054906101000a900473ffffffffffffffffffffffffffffffffffffffff1673ffffffffffffffffffffffffffffffffffffffff1663c41a360a846040518263ffffffff1660e01b8152600401610969919061324d565b60206040518083038186803b15801561098157600080fd5b505afa158015610995573d6000803e3d6000fd5b505050506040513d601f19601f820116820180604052508101906109b9919061274f565b9050600073ffffffffffffffffffffffffffffffffffffffff168173ffffffffffffffffffffffffffffffffffffffff161415610a2b576040517f08c379a0000000000000000000000000000000000000000000000000000000008152600401610a2290613152565b60405180910390fd5b80915050919050565b6000600160009054906101000a900473ffffffffffffffffffffffffffffffffffffffff1673ffffffffffffffffffffffffffffffffffffffff16634f3130fa6040518163ffffffff1660e01b8152600401600060405180830381600087803b158015610aa057600080fd5b505af1158015610ab4573d6000803e3d6000fd5b505050506000600160009054906101000a900473ffffffffffffffffffffffffffffffffffffffff1673ffffffffffffffffffffffffffffffffffffffff1663561892366040518163ffffffff1660e01b815260040160206040518083038186803b158015610b2257600080fd5b505afa158015610b36573d6000803e3d6000fd5b505050506040513d601f19601f82011682018060405250810190610b5a9190612a85565b9050610b71610b67611392565b82888888886118f6565b6001915050949350505050565b60008073ffffffffffffffffffffffffffffffffffffffff168273ffffffffffffffffffffffffffffffffffffffff161415610bef576040517f08c379a0000000000000000000000000000000000000000000000000000000008152600401610be690613132565b60405180910390fd5b600160009054906101000a900473ffffffffffffffffffffffffffffffffffffffff1673ffffffffffffffffffffffffffffffffffffffff1663f8b2cb4f836040518263ffffffff1660e01b8152600401610c4a9190612f03565b60206040518083038186803b158015610c6257600080fd5b505afa158015610c76573d6000803e3d6000fd5b505050506040513d601f19601f82011682018060405250810190610c9a9190612a85565b9050919050565b610ca9611392565b73ffffffffffffffffffffffffffffffffffffffff16610cc7610d29565b73ffffffffffffffffffffffffffffffffffffffff1614610d1d576040517f08c379a0000000000000000000000000000000000000000000000000000000008152600401610d14906131b2565b60405180910390fd5b610d276000611d79565b565b60008060009054906101000a900473ffffffffffffffffffffffffffffffffffffffff16905090565b6060600160009054906101000a900473ffffffffffffffffffffffffffffffffffffffff1673ffffffffffffffffffffffffffffffffffffffff1663150704016040518163ffffffff1660e01b815260040160006040518083038186803b158015610dbc57600080fd5b505afa158015610dd0573d6000803e3d6000fd5b505050506040513d6000823e3d601f19601f82011682018060405250810190610df991906129e2565b905090565b610e10610e09611392565b8383611e3d565b5050565b610e25610e1f611392565b8361139a565b610e64576040517f08c379a0000000000000000000000000000000000000000000000000000000008152600401610e5b90613212565b60405180910390fd5b610e7084848484611fa7565b50505050565b610e7e611392565b73ffffffffffffffffffffffffffffffffffffffff16610e9c610d29565b73ffffffffffffffffffffffffffffffffffffffff1614610ef2576040517f08c379a0000000000000000000000000000000000000000000000000000000008152600401610ee9906131b2565b60405180910390fd5b80600160006101000a81548173ffffffffffffffffffffffffffffffffffffffff021916908373ffffffffffffffffffffffffffffffffffffffff16021790555050565b6060610f41826112af565b610f80576040517f08c379a0000000000000000000000000000000000000000000000000000000008152600401610f77906131d2565b60405180910390fd5b6000610f8a612003565b90506000815111610faa5760405180602001604052806000815250610fd5565b80610fb48461201a565b604051602001610fc5929190612edf565b6040516020818303038152906040525b915050919050565b6060600160009054906101000a900473ffffffffffffffffffffffffffffffffffffffff1673ffffffffffffffffffffffffffffffffffffffff1663d19c2185836040518263ffffffff1660e01b815260040161103a9190612f03565b60006040518083038186803b15801561105257600080fd5b505afa158015611066573d6000803e3d6000fd5b505050506040513d6000823e3d601f19601f8201168201806040525081019061108f9190612912565b9050919050565b6000600160009054906101000a900473ffffffffffffffffffffffffffffffffffffffff1673ffffffffffffffffffffffffffffffffffffffff16630514b26c84846040518363ffffffff1660e01b81526004016110f5929190612f1e565b60206040518083038186803b15801561110d57600080fd5b505afa158015611121573d6000803e3d6000fd5b505050506040513d601f19601f82011682018060405250810190611145919061295b565b905092915050565b611155611392565b73ffffffffffffffffffffffffffffffffffffffff16611173610d29565b73ffffffffffffffffffffffffffffffffffffffff16146111c9576040517f08c379a00000000000000000000000000000000000000000000000000000000081526004016111c0906131b2565b60405180910390fd5b600073ffffffffffffffffffffffffffffffffffffffff168173ffffffffffffffffffffffffffffffffffffffff161415611239576040517f08c379a000000000000000000000000000000000000000000000000000000000815260040161123090613072565b60405180910390fd5b61124281611d79565b50565b60007f01ffc9a7000000000000000000000000000000000000000000000000000000007bffffffffffffffffffffffffffffffffffffffffffffffffffffffff1916827bffffffffffffffffffffffffffffffffffffffffffffffffffffffff1916149050919050565b60008073ffffffffffffffffffffffffffffffffffffffff16600160009054906101000a900473ffffffffffffffffffffffffffffffffffffffff1673ffffffffffffffffffffffffffffffffffffffff1663c41a360a846040518263ffffffff1660e01b8152600401611323919061324d565b60206040518083038186803b15801561133b57600080fd5b505afa15801561134f573d6000803e3d6000fd5b505050506040513d601f19601f82011682018060405250810190611373919061274f565b73ffffffffffffffffffffffffffffffffffffffff1614159050919050565b600033905090565b60006113a5826112af565b6113e4576040517f08c379a00000000000000000000000000000000000000000000000000000000081526004016113db90613112565b60405180910390fd5b60006113ef8361090b565b90508073ffffffffffffffffffffffffffffffffffffffff168473ffffffffffffffffffffffffffffffffffffffff16148061145e57508373ffffffffffffffffffffffffffffffffffffffff1661144684610597565b73ffffffffffffffffffffffffffffffffffffffff16145b8061146f575061146e8185611096565b5b91505092915050565b8273ffffffffffffffffffffffffffffffffffffffff166114988261090b565b73ffffffffffffffffffffffffffffffffffffffff16146114ee576040517f08c379a00000000000000000000000000000000000000000000000000000000081526004016114e590613092565b60405180910390fd5b600073ffffffffffffffffffffffffffffffffffffffff168273ffffffffffffffffffffffffffffffffffffffff16141561155e576040517f08c379a0000000000000000000000000000000000000000000000000000000008152600401611555906130d2565b60405180910390fd5b61156983838361217b565b611574600082612180565b600160009054906101000a900473ffffffffffffffffffffffffffffffffffffffff1673ffffffffffffffffffffffffffffffffffffffff1663e30443bc8460018060009054906101000a900473ffffffffffffffffffffffffffffffffffffffff1673ffffffffffffffffffffffffffffffffffffffff1663f8b2cb4f886040518263ffffffff1660e01b815260040161160f9190612f03565b60206040518083038186803b15801561162757600080fd5b505afa15801561163b573d6000803e3d6000fd5b505050506040513d601f19601f8201168201806040525081019061165f9190612a85565b6116699190613447565b6040518363ffffffff1660e01b8152600401611686929190612fca565b600060405180830381600087803b1580156116a057600080fd5b505af11580156116b4573d6000803e3d6000fd5b50505050600160009054906101000a900473ffffffffffffffffffffffffffffffffffffffff1673ffffffffffffffffffffffffffffffffffffffff1663e30443bc8360018060009054906101000a900473ffffffffffffffffffffffffffffffffffffffff1673ffffffffffffffffffffffffffffffffffffffff1663f8b2cb4f876040518263ffffffff1660e01b81526004016117539190612f03565b60206040518083038186803b15801561176b57600080fd5b505afa15801561177f573d6000803e3d6000fd5b505050506040513d601f19601f820116820180604052508101906117a39190612a85565b6117ad91906133c0565b6040518363ffffffff1660e01b81526004016117ca929190612fca565b600060405180830381600087803b1580156117e457600080fd5b505af11580156117f8573d6000803e3d6000fd5b50505050600160009054906101000a900473ffffffffffffffffffffffffffffffffffffffff1673ffffffffffffffffffffffffffffffffffffffff1663ab3b87fe83836040518363ffffffff1660e01b8152600401611859929190612fca565b600060405180830381600087803b15801561187357600080fd5b505af1158015611887573d6000803e3d6000fd5b50505050808273ffffffffffffffffffffffffffffffffffffffff168473ffffffffffffffffffffffffffffffffffffffff167fddf252ad1be2c89b69c2b068fc378daa952ba7f163c4a11628f55a4df523b3ef60405160405180910390a46118f1838383612276565b505050565b600073ffffffffffffffffffffffffffffffffffffffff168673ffffffffffffffffffffffffffffffffffffffff161415611966576040517f08c379a000000000000000000000000000000000000000000000000000000000815260040161195d90613172565b60405180910390fd5b61196f856112af565b156119af576040517f08c379a00000000000000000000000000000000000000000000000000000000081526004016119a6906130b2565b60405180910390fd5b6119bb6000878761217b565b600160009054906101000a900473ffffffffffffffffffffffffffffffffffffffff1673ffffffffffffffffffffffffffffffffffffffff1663e30443bc8760018060009054906101000a900473ffffffffffffffffffffffffffffffffffffffff1673ffffffffffffffffffffffffffffffffffffffff1663f8b2cb4f8b6040518263ffffffff1660e01b8152600401611a569190612f03565b60206040518083038186803b158015611a6e57600080fd5b505afa158015611a82573d6000803e3d6000fd5b505050506040513d601f19601f82011682018060405250810190611aa69190612a85565b611ab091906133c0565b6040518363ffffffff1660e01b8152600401611acd929190612fca565b600060405180830381600087803b158015611ae757600080fd5b505af1158015611afb573d6000803e3d6000fd5b50505050600160009054906101000a900473ffffffffffffffffffffffffffffffffffffffff1673ffffffffffffffffffffffffffffffffffffffff1663ab3b87fe87876040518363ffffffff1660e01b8152600401611b5c929190612fca565b600060405180830381600087803b158015611b7657600080fd5b505af1158015611b8a573d6000803e3d6000fd5b50505050611b96612435565b848160000181815250508381602001818152505082816040018181525050816004811115611bc757611bc661365f565b5b81606001906004811115611bde57611bdd61365f565b5b90816004811115611bf257611bf161365f565b5b81525050600160009054906101000a900473ffffffffffffffffffffffffffffffffffffffff1673ffffffffffffffffffffffffffffffffffffffff166353d84a4e87836040518363ffffffff1660e01b8152600401611c53929190613268565b600060405180830381600087803b158015611c6d57600080fd5b505af1158015611c81573d6000803e3d6000fd5b50505050600160009054906101000a900473ffffffffffffffffffffffffffffffffffffffff1673ffffffffffffffffffffffffffffffffffffffff1663a4faf3e288886040518363ffffffff1660e01b8152600401611ce2929190612fca565b600060405180830381600087803b158015611cfc57600080fd5b505af1158015611d10573d6000803e3d6000fd5b50505050858773ffffffffffffffffffffffffffffffffffffffff16600073ffffffffffffffffffffffffffffffffffffffff167fddf252ad1be2c89b69c2b068fc378daa952ba7f163c4a11628f55a4df523b3ef60405160405180910390a450505050505050565b60008060009054906101000a900473ffffffffffffffffffffffffffffffffffffffff169050816000806101000a81548173ffffffffffffffffffffffffffffffffffffffff021916908373ffffffffffffffffffffffffffffffffffffffff1602179055508173ffffffffffffffffffffffffffffffffffffffff168173ffffffffffffffffffffffffffffffffffffffff167f8be0079c531659141344cd1fd0a4f28419497f9722a3daafe3b4186f6b6457e060405160405180910390a35050565b8173ffffffffffffffffffffffffffffffffffffffff168373ffffffffffffffffffffffffffffffffffffffff161415611eac576040517f08c379a0000000000000000000000000000000000000000000000000000000008152600401611ea3906130f2565b60405180910390fd5b600160009054906101000a900473ffffffffffffffffffffffffffffffffffffffff1673ffffffffffffffffffffffffffffffffffffffff1663e93fe2908484846040518463ffffffff1660e01b8152600401611f0b93929190612f47565b600060405180830381600087803b158015611f2557600080fd5b505af1158015611f39573d6000803e3d6000fd5b505050508173ffffffffffffffffffffffffffffffffffffffff168373ffffffffffffffffffffffffffffffffffffffff167f17307eab39ab6107e8899845ad3d59bd9653f200f220920489ca2b5937696c3183604051611f9a9190613015565b60405180910390a3505050565b611fb2848484611478565b611fbe8484848461227b565b611ffd576040517f08c379a0000000000000000000000000000000000000000000000000000000008152600401611ff490613052565b60405180910390fd5b50505050565b606060405180602001604052806000815250905090565b60606000821415612062576040518060400160405280600181526020017f30000000000000000000000000000000000000000000000000000000000000008152509050612176565b600082905060005b6000821461209457808061207d90613587565b915050600a8261208d9190613416565b915061206a565b60008167ffffffffffffffff8111156120b0576120af6136bd565b5b6040519080825280601f01601f1916602001820160405280156120e25781602001600182028036833780820191505090505b5090505b6000851461216f576001826120fb9190613447565b9150600a8561210a91906135d0565b603061211691906133c0565b60f81b81838151811061212c5761212b61368e565b5b60200101907effffffffffffffffffffffffffffffffffffffffffffffffffffffffffffff1916908160001a905350600a856121689190613416565b94506120e6565b8093505050505b919050565b505050565b600160009054906101000a900473ffffffffffffffffffffffffffffffffffffffff1673ffffffffffffffffffffffffffffffffffffffff166345a0feb983836040518363ffffffff1660e01b81526004016121dd929190612fca565b600060405180830381600087803b1580156121f757600080fd5b505af115801561220b573d6000803e3d6000fd5b50505050808273ffffffffffffffffffffffffffffffffffffffff166122308361090b565b73ffffffffffffffffffffffffffffffffffffffff167f8c5be1e5ebec7d5bd14f71427d1e84f3dd0314c0f7b2291e5b200ac8c7c3b92560405160405180910390a45050565b505050565b600061229c8473ffffffffffffffffffffffffffffffffffffffff16612412565b15612405578373ffffffffffffffffffffffffffffffffffffffff1663150b7a026122c5611392565b8786866040518563ffffffff1660e01b81526004016122e79493929190612f7e565b602060405180830381600087803b15801561230157600080fd5b505af192505050801561233257506040513d601f19601f8201168201806040525081019061232f91906129b5565b60015b6123b5573d8060008114612362576040519150601f19603f3d011682016040523d82523d6000602084013e612367565b606091505b506000815114156123ad576040517f08c379a00000000000000000000000000000000000000000000000000000000081526004016123a490613052565b60405180910390fd5b805181602001fd5b63150b7a0260e01b7bffffffffffffffffffffffffffffffffffffffffffffffffffffffff1916817bffffffffffffffffffffffffffffffffffffffffffffffffffffffff19161491505061240a565b600190505b949350505050565b6000808273ffffffffffffffffffffffffffffffffffffffff163b119050919050565b6040518060800160405280600081526020016000815260200160008152602001600060048111156124695761246861365f565b5b81525090565b600061248261247d846132b6565b613291565b905080838252602082019050828560208602820111156124a5576124a46136f6565b5b60005b858110156124d557816124bb888261270d565b8452602084019350602083019250506001810190506124a8565b5050509392505050565b60006124f26124ed846132e2565b613291565b90508281526020810184848401111561250e5761250d6136fb565b5b612519848285613514565b509392505050565b600061253461252f84613313565b613291565b9050828152602081018484840111156125505761254f6136fb565b5b61255b848285613523565b509392505050565b60008135905061257281613b12565b92915050565b60008151905061258781613b12565b92915050565b600082601f8301126125a2576125a16136ec565b5b81516125b284826020860161246f565b91505092915050565b6000813590506125ca81613b29565b92915050565b6000815190506125df81613b29565b92915050565b6000813590506125f481613b40565b92915050565b60008151905061260981613b40565b92915050565b600082601f830112612624576126236136ec565b5b81356126348482602086016124df565b91505092915050565b60008151905061264c81613b57565b92915050565b600082601f830112612667576126666136ec565b5b8151612677848260208601612521565b91505092915050565b600060808284031215612696576126956136f1565b5b6126a06080613291565b905060006126b08482850161270d565b60008301525060206126c48482850161270d565b60208301525060406126d88482850161270d565b60408301525060606126ec8482850161263d565b60608301525092915050565b60008135905061270781613b67565b92915050565b60008151905061271c81613b67565b92915050565b60006020828403121561273857612737613705565b5b600061274684828501612563565b91505092915050565b60006020828403121561276557612764613705565b5b600061277384828501612578565b91505092915050565b6000806040838503121561279357612792613705565b5b60006127a185828601612563565b92505060206127b285828601612563565b9150509250929050565b6000806000606084860312156127d5576127d4613705565b5b60006127e386828701612563565b93505060206127f486828701612563565b9250506040612805868287016126f8565b9150509250925092565b6000806000806080858703121561282957612828613705565b5b600061283787828801612563565b945050602061284887828801612563565b9350506040612859878288016126f8565b925050606085013567ffffffffffffffff81111561287a57612879613700565b5b6128868782880161260f565b91505092959194509250565b600080604083850312156128a9576128a8613705565b5b60006128b785828601612563565b92505060206128c8858286016125bb565b9150509250929050565b600080604083850312156128e9576128e8613705565b5b60006128f785828601612563565b9250506020612908858286016126f8565b9150509250929050565b60006020828403121561292857612927613705565b5b600082015167ffffffffffffffff81111561294657612945613700565b5b6129528482850161258d565b91505092915050565b60006020828403121561297157612970613705565b5b600061297f848285016125d0565b91505092915050565b60006020828403121561299e5761299d613705565b5b60006129ac848285016125e5565b91505092915050565b6000602082840312156129cb576129ca613705565b5b60006129d9848285016125fa565b91505092915050565b6000602082840312156129f8576129f7613705565b5b600082015167ffffffffffffffff811115612a1657612a15613700565b5b612a2284828501612652565b91505092915050565b600060808284031215612a4157612a40613705565b5b6000612a4f84828501612680565b91505092915050565b600060208284031215612a6e57612a6d613705565b5b6000612a7c848285016126f8565b91505092915050565b600060208284031215612a9b57612a9a613705565b5b6000612aa98482850161270d565b91505092915050565b60008060008060808587031215612acc57612acb613705565b5b6000612ada878288016126f8565b9450506020612aeb878288016126f8565b9350506040612afc878288016126f8565b9250506060612b0d878288016126f8565b91505092959194509250565b6000612b258383612ec1565b60208301905092915050565b612b3a8161347b565b82525050565b6000612b4b82613354565b612b558185613382565b9350612b6083613344565b8060005b83811015612b91578151612b788882612b19565b9750612b8383613375565b925050600181019050612b64565b5085935050505092915050565b612ba78161348d565b82525050565b6000612bb88261335f565b612bc28185613393565b9350612bd2818560208601613523565b612bdb8161370a565b840191505092915050565b612bef81613502565b82525050565b6000612c008261336a565b612c0a81856133a4565b9350612c1a818560208601613523565b612c238161370a565b840191505092915050565b6000612c398261336a565b612c4381856133b5565b9350612c53818560208601613523565b80840191505092915050565b6000612c6c6032836133a4565b9150612c778261371b565b604082019050919050565b6000612c8f6026836133a4565b9150612c9a8261376a565b604082019050919050565b6000612cb26025836133a4565b9150612cbd826137b9565b604082019050919050565b6000612cd5601c836133a4565b9150612ce082613808565b602082019050919050565b6000612cf86024836133a4565b9150612d0382613831565b604082019050919050565b6000612d1b6019836133a4565b9150612d2682613880565b602082019050919050565b6000612d3e602c836133a4565b9150612d49826138a9565b604082019050919050565b6000612d61602a836133a4565b9150612d6c826138f8565b604082019050919050565b6000612d846029836133a4565b9150612d8f82613947565b604082019050919050565b6000612da76020836133a4565b9150612db282613996565b602082019050919050565b6000612dca602c836133a4565b9150612dd5826139bf565b604082019050919050565b6000612ded6020836133a4565b9150612df882613a0e565b602082019050919050565b6000612e10602f836133a4565b9150612e1b82613a37565b604082019050919050565b6000612e33601a836133a4565b9150612e3e82613a86565b602082019050919050565b6000612e566031836133a4565b9150612e6182613aaf565b604082019050919050565b608082016000820151612e826000850182612ec1565b506020820151612e956020850182612ec1565b506040820151612ea86040850182612ec1565b506060820151612ebb6060850182612be6565b50505050565b612eca816134f8565b82525050565b612ed9816134f8565b82525050565b6000612eeb8285612c2e565b9150612ef78284612c2e565b91508190509392505050565b6000602082019050612f186000830184612b31565b92915050565b6000604082019050612f336000830185612b31565b612f406020830184612b31565b9392505050565b6000606082019050612f5c6000830186612b31565b612f696020830185612b31565b612f766040830184612b9e565b949350505050565b6000608082019050612f936000830187612b31565b612fa06020830186612b31565b612fad6040830185612ed0565b8181036060830152612fbf8184612bad565b905095945050505050565b6000604082019050612fdf6000830185612b31565b612fec6020830184612ed0565b9392505050565b6000602082019050818103600083015261300d8184612b40565b905092915050565b600060208201905061302a6000830184612b9e565b92915050565b6000602082019050818103600083015261304a8184612bf5565b905092915050565b6000602082019050818103600083015261306b81612c5f565b9050919050565b6000602082019050818103600083015261308b81612c82565b9050919050565b600060208201905081810360008301526130ab81612ca5565b9050919050565b600060208201905081810360008301526130cb81612cc8565b9050919050565b600060208201905081810360008301526130eb81612ceb565b9050919050565b6000602082019050818103600083015261310b81612d0e565b9050919050565b6000602082019050818103600083015261312b81612d31565b9050919050565b6000602082019050818103600083015261314b81612d54565b9050919050565b6000602082019050818103600083015261316b81612d77565b9050919050565b6000602082019050818103600083015261318b81612d9a565b9050919050565b600060208201905081810360008301526131ab81612dbd565b9050919050565b600060208201905081810360008301526131cb81612de0565b9050919050565b600060208201905081810360008301526131eb81612e03565b9050919050565b6000602082019050818103600083015261320b81612e26565b9050919050565b6000602082019050818103600083015261322b81612e49565b9050919050565b60006080820190506132476000830184612e6c565b92915050565b60006020820190506132626000830184612ed0565b92915050565b600060a08201905061327d6000830185612ed0565b61328a6020830184612e6c565b9392505050565b600061329b6132ac565b90506132a78282613556565b919050565b6000604051905090565b600067ffffffffffffffff8211156132d1576132d06136bd565b5b602082029050602081019050919050565b600067ffffffffffffffff8211156132fd576132fc6136bd565b5b6133068261370a565b9050602081019050919050565b600067ffffffffffffffff82111561332e5761332d6136bd565b5b6133378261370a565b9050602081019050919050565b6000819050602082019050919050565b600081519050919050565b600081519050919050565b600081519050919050565b6000602082019050919050565b600082825260208201905092915050565b600082825260208201905092915050565b600082825260208201905092915050565b600081905092915050565b60006133cb826134f8565b91506133d6836134f8565b9250827fffffffffffffffffffffffffffffffffffffffffffffffffffffffffffffffff0382111561340b5761340a613601565b5b828201905092915050565b6000613421826134f8565b915061342c836134f8565b92508261343c5761343b613630565b5b828204905092915050565b6000613452826134f8565b915061345d836134f8565b9250828210156134705761346f613601565b5b828203905092915050565b6000613486826134d8565b9050919050565b60008115159050919050565b60007fffffffff0000000000000000000000000000000000000000000000000000000082169050919050565b60008190506134d382613afe565b919050565b600073ffffffffffffffffffffffffffffffffffffffff82169050919050565b6000819050919050565b600061350d826134c5565b9050919050565b82818337600083830152505050565b60005b83811015613541578082015181840152602081019050613526565b83811115613550576000848401525b50505050565b61355f8261370a565b810181811067ffffffffffffffff8211171561357e5761357d6136bd565b5b80604052505050565b6000613592826134f8565b91507fffffffffffffffffffffffffffffffffffffffffffffffffffffffffffffffff8214156135c5576135c4613601565b5b600182019050919050565b60006135db826134f8565b91506135e6836134f8565b9250826135f6576135f5613630565b5b828206905092915050565b7f4e487b7100000000000000000000000000000000000000000000000000000000600052601160045260246000fd5b7f4e487b7100000000000000000000000000000000000000000000000000000000600052601260045260246000fd5b7f4e487b7100000000000000000000000000000000000000000000000000000000600052602160045260246000fd5b7f4e487b7100000000000000000000000000000000000000000000000000000000600052603260045260246000fd5b7f4e487b7100000000000000000000000000000000000000000000000000000000600052604160045260246000fd5b600080fd5b600080fd5b600080fd5b600080fd5b600080fd5b600080fd5b6000601f19601f8301169050919050565b7f4552433732313a207472616e7366657220746f206e6f6e20455243373231526560008201527f63656976657220696d706c656d656e7465720000000000000000000000000000602082015250565b7f4f776e61626c653a206e6577206f776e657220697320746865207a65726f206160008201527f6464726573730000000000000000000000000000000000000000000000000000602082015250565b7f4552433732313a207472616e736665722066726f6d20696e636f72726563742060008201527f6f776e6572000000000000000000000000000000000000000000000000000000602082015250565b7f4552433732313a20746f6b656e20616c7265616479206d696e74656400000000600082015250565b7f4552433732313a207472616e7366657220746f20746865207a65726f2061646460008201527f7265737300000000000000000000000000000000000000000000000000000000602082015250565b7f4552433732313a20617070726f766520746f2063616c6c657200000000000000600082015250565b7f4552433732313a206f70657261746f7220717565727920666f72206e6f6e657860008201527f697374656e7420746f6b656e0000000000000000000000000000000000000000602082015250565b7f4552433732313a2062616c616e636520717565727920666f7220746865207a6560008201527f726f206164647265737300000000000000000000000000000000000000000000602082015250565b7f4552433732313a206f776e657220717565727920666f72206e6f6e657869737460008201527f656e7420746f6b656e0000000000000000000000000000000000000000000000602082015250565b7f4552433732313a206d696e7420746f20746865207a65726f2061646472657373600082015250565b7f4552433732313a20617070726f76656420717565727920666f72206e6f6e657860008201527f697374656e7420746f6b656e0000000000000000000000000000000000000000602082015250565b7f4f776e61626c653a2063616c6c6572206973206e6f7420746865206f776e6572600082015250565b7f4552433732314d657461646174613a2055524920717565727920666f72206e6f60008201527f6e6578697374656e7420746f6b656e0000000000000000000000000000000000602082015250565b7f4552433732313a20746f6b656e20646f65736e74206578697374000000000000600082015250565b7f4552433732313a207472616e736665722063616c6c6572206973206e6f74206f60008201527f776e6572206e6f7220617070726f766564000000000000000000000000000000602082015250565b60058110613b0f57613b0e61365f565b5b50565b613b1b8161347b565b8114613b2657600080fd5b50565b613b328161348d565b8114613b3d57600080fd5b50565b613b4981613499565b8114613b5457600080fd5b50565b60058110613b6457600080fd5b50565b613b70816134f8565b8114613b7b57600080fd5b5056fea26469706673582212206859dc50d9255f449cea126b81870b2dffd17eb61b401846379c174ea3ffacfe64736f6c63430008050033",
  "immutableReferences": {},
  "source": "// SPDX-License-Identifier: MIT\r\npragma solidity ^0.8.0;\r\nimport \"@openzeppelin/contracts/utils/introspection/ERC165.sol\";\r\nimport \"@openzeppelin/contracts/utils/Context.sol\";\r\nimport \"@openzeppelin/contracts/token/ERC721/IERC721.sol\";\r\nimport \"@openzeppelin/contracts/token/ERC721/extensions/IERC721Metadata.sol\";\r\nimport \"@openzeppelin/contracts/token/ERC721/IERC721Receiver.sol\";\r\nimport \"@openzeppelin/contracts/access/Ownable.sol\";\r\nimport \"@openzeppelin/contracts/utils/Address.sol\";\r\nimport \"@openzeppelin/contracts/utils/Strings.sol\";\r\nimport \"./EternalDronesStorage.sol\";\r\n\r\n\r\n\r\ncontract DronesERC721  is Context, IERC721, IERC721Metadata, ERC165, Ownable {\r\n\r\n    using Address for address;\r\n    using Strings for uint256;\r\n\r\n    EternalDronesStorage eternalDronesStorage;\r\n\r\n    constructor(address _addressEternalDronesStorage) {\r\n        eternalDronesStorage = EternalDronesStorage(_addressEternalDronesStorage);\r\n    }\r\n\r\n    function initialize(address _addressEternalDronesStorage) public onlyOwner {\r\n        eternalDronesStorage = EternalDronesStorage(_addressEternalDronesStorage);\r\n    }\r\n\r\n\r\n    // Funcion para ERC165\r\n    /**\r\n     * @dev See {IERC165-supportsInterface}.\r\n     */\r\n    function supportsInterface(bytes4 interfaceId) public view override(ERC165, IERC165) returns (bool) {\r\n        return\r\n            interfaceId == type(IERC721).interfaceId ||\r\n            interfaceId == type(IERC721Metadata).interfaceId ||\r\n            super.supportsInterface(interfaceId);\r\n    }\r\n\r\n\r\n    /** \r\n        FUNCIONES SOBREESCRITAS PARA CUMPLIR CON LA INTERFACE IERC721\r\n    **/\r\n\r\n\r\n    /**\r\n     * @dev Returns the number of tokens in ``owner``'s account.\r\n     */\r\n    function balanceOf(address owner) override public view returns (uint256) {\r\n\r\n        require(owner != address(0), \"ERC721: balance query for the zero address\");\r\n        return eternalDronesStorage.getBalance(owner);\r\n    }\r\n\r\n    /**\r\n     * @dev Returns the owner of the `tokenId` token.\r\n     *\r\n     * Requirements:\r\n     *\r\n     * - `tokenId` must exist.\r\n     */\r\n    function ownerOf(uint256 tokenId) override public view returns (address) {\r\n        \r\n        address owner = eternalDronesStorage.getOwner(tokenId);\r\n        require(owner != address(0), \"ERC721: owner query for nonexistent token\");\r\n        return owner;\r\n    }\r\n\r\n    /**\r\n     * @dev Safely transfers `tokenId` token from `from` to `to`, checking first that contract recipients\r\n     * are aware of the ERC721 protocol to prevent tokens from being forever locked.\r\n     *\r\n     * Requirements:\r\n     *\r\n     * - `from` cannot be the zero address.\r\n     * - `to` cannot be the zero address.\r\n     * - `tokenId` token must exist and be owned by `from`.\r\n     * - If the caller is not `from`, it must be have been allowed to move this token by either {approve} or {setApprovalForAll}.\r\n     * - If `to` refers to a smart contract, it must implement {IERC721Receiver-onERC721Received}, which is called upon a safe transfer.\r\n     *\r\n     * Emits a {Transfer} event.\r\n     */\r\n    function safeTransferFrom(address from, address to, uint256 tokenId) override external {\r\n\r\n        safeTransferFrom(from, to, tokenId, bytes (\"\"));\r\n    }\r\n\r\n    /**\r\n     * @dev Transfers `tokenId` token from `from` to `to`.\r\n     *\r\n     * WARNING: Usage of this method is discouraged, use {safeTransferFrom} whenever possible.\r\n     *\r\n     * Requirements:\r\n     *\r\n     * - `from` cannot be the zero address.\r\n     * - `to` cannot be the zero address.\r\n     * - `tokenId` token must be owned by `from`.\r\n     * - If the caller is not `from`, it must be approved to move this token by either {approve} or {setApprovalForAll}.\r\n     *\r\n     * Emits a {Transfer} event.\r\n     */\r\n    function transferFrom(address from, address to, uint256 tokenId) override external {\r\n\r\n        require(_isApprovedOrOwner(_msgSender(), tokenId), \"ERC721: transfer caller is not owner nor approved\");\r\n\r\n        _transfer(from, to, tokenId);\r\n\r\n    }\r\n\r\n    /**\r\n     * @dev Gives permission to `to` to transfer `tokenId` token to another account.\r\n     * The approval is cleared when the token is transferred.\r\n     *\r\n     * Only a single account can be approved at a time, so approving the zero address clears previous approvals.\r\n     *\r\n     * Requirements:\r\n     *\r\n     * - The caller must own the token or be an approved operator.\r\n     * - `tokenId` must exist.\r\n     *\r\n     * Emits an {Approval} event.\r\n     */\r\n    function approve(address to, uint256 tokenId) override external {\r\n\r\n        eternalDronesStorage.setTokenApproval(to, tokenId);        \r\n        emit Approval(ownerOf(tokenId), to, tokenId);\r\n    }\r\n\r\n    /**\r\n     * @dev Returns the account approved for `tokenId` token.\r\n     *\r\n     * Requirements:\r\n     *\r\n     * - `tokenId` must exist.\r\n     */\r\n    function getApproved(uint256 tokenId) override public view returns (address) {\r\n\r\n        require(_exists(tokenId), \"ERC721: approved query for nonexistent token\");\r\n        return eternalDronesStorage.getTokenApproval(tokenId);\r\n        \r\n    }\r\n\r\n    /**\r\n     * @dev Approve or remove `operator` as an operator for the caller.\r\n     * Operators can call {transferFrom} or {safeTransferFrom} for any token owned by the caller.\r\n     *\r\n     * Requirements:\r\n     *\r\n     * - The `operator` cannot be the caller.\r\n     *\r\n     * Emits an {ApprovalForAll} event.\r\n     */\r\n    function setApprovalForAll(address operator, bool _approved) override external {\r\n\r\n        _setApprovalForAll(_msgSender(), operator, _approved);\r\n    }\r\n\r\n    function _setApprovalForAll(address owner, address operator, bool _approved) internal {\r\n        require(owner != operator, \"ERC721: approve to caller\");\r\n\r\n        eternalDronesStorage.setOperatorApproval(owner, operator, _approved);\r\n       \r\n        emit ApprovalForAll(owner, operator, _approved);\r\n    }\r\n\r\n    /**\r\n     * @dev Returns if the `operator` is allowed to manage all of the assets of `owner`.\r\n     *\r\n     * See {setApprovalForAll}\r\n     */\r\n    function isApprovedForAll(address owner, address operator) override public view returns (bool) {\r\n\r\n        return eternalDronesStorage.getOperatorApproval(owner, operator);\r\n\r\n    }\r\n\r\n    /**\r\n     * @dev Safely transfers `tokenId` token from `from` to `to`.\r\n     *\r\n     * Requirements:\r\n     *\r\n     * - `from` cannot be the zero address.\r\n     * - `to` cannot be the zero address.\r\n     * - `tokenId` token must exist and be owned by `from`.\r\n     * - If the caller is not `from`, it must be approved to move this token by either {approve} or {setApprovalForAll}.\r\n     * - If `to` refers to a smart contract, it must implement {IERC721Receiver-onERC721Received}, which is called upon a safe transfer.\r\n     *\r\n     * Emits a {Transfer} event.\r\n     */\r\n    function safeTransferFrom(address from, address to, uint256 tokenId, bytes memory /*calldata*/ data) override public {\r\n\r\n        require(_isApprovedOrOwner(_msgSender(), tokenId), \"ERC721: transfer caller is not owner nor approved\");\r\n        _safeTransfer(from, to, tokenId, data);\r\n    }\r\n\r\n\r\n    /** FIN FUNCIONES IERC721 */\r\n\r\n    /**\r\n     * @dev Transfers `tokenId` from `from` to `to`.\r\n     *  As opposed to {transferFrom}, this imposes no restrictions on msg.sender.\r\n     *\r\n     * Requirements:\r\n     *\r\n     * - `to` cannot be the zero address.\r\n     * - `tokenId` token must be owned by `from`.\r\n     *\r\n     * Emits a {Transfer} event.\r\n     */\r\n    function _transfer(address from, address to, uint256 tokenId) internal virtual {\r\n\r\n        require(DronesERC721.ownerOf(tokenId) == from, \"ERC721: transfer from incorrect owner\");\r\n        require(to != address(0), \"ERC721: transfer to the zero address\");\r\n\r\n        _beforeTokenTransfer(from, to, tokenId);\r\n\r\n        // Clear approvals from the previous owner\r\n        _approve(address(0), tokenId);\r\n\r\n        eternalDronesStorage.setBalance(from, eternalDronesStorage.getBalance(from) - 1);\r\n        eternalDronesStorage.setBalance(to, eternalDronesStorage.getBalance(to) + 1);\r\n        \r\n        eternalDronesStorage.setOwner(to, tokenId);\r\n        \r\n        emit Transfer(from, to, tokenId);\r\n\r\n        _afterTokenTransfer(from, to, tokenId);\r\n    }\r\n\r\n    /**\r\n     * @dev Approve `to` to operate on `tokenId`\r\n     *\r\n     * Emits a {Approval} event.\r\n     */\r\n    function _approve(address to, uint256 tokenId) internal virtual {\r\n\r\n        eternalDronesStorage.setTokenApproval(to, tokenId);       \r\n        emit Approval(DronesERC721.ownerOf(tokenId), to, tokenId);\r\n    }\r\n\r\n    /** FUNCIONES IERC721Metadata */\r\n\r\n    /**\r\n     * @dev See {IERC721Metadata-name}.\r\n     */\r\n    function name() public view virtual override returns (string memory) {\r\n        return eternalDronesStorage.getName();\r\n    }\r\n\r\n    /**\r\n     * @dev See {IERC721Metadata-symbol}.\r\n     */\r\n    function symbol() public view virtual override returns (string memory) {\r\n        return eternalDronesStorage.getSymbol();\r\n    }\r\n\r\n    /**\r\n     * @dev See {IERC721Metadata-tokenURI}.\r\n     */\r\n    function tokenURI(uint256 tokenId) public view virtual override returns (string memory) {\r\n        require(_exists(tokenId), \"ERC721Metadata: URI query for nonexistent token\");\r\n\r\n        string memory baseURI = _baseURI();\r\n        return bytes(baseURI).length > 0 ? string(abi.encodePacked(baseURI, tokenId.toString())) : \"\";\r\n    }\r\n\r\n    /**\r\n     * @dev Base URI for computing {tokenURI}. If set, the resulting URI for each\r\n     * token will be the concatenation of the `baseURI` and the `tokenId`. Empty\r\n     * by default, can be overriden in child contracts.\r\n     */\r\n    function _baseURI() internal view virtual returns (string memory) {\r\n        return \"\";\r\n    }\r\n\r\n    // FIN FUNCIONES IERC721Metadata\r\n\r\n    /**\r\n     * @dev Returns whether `tokenId` exists.\r\n     *\r\n     * Tokens can be managed by their owner or approved accounts via {approve} or {setApprovalForAll}.\r\n     *\r\n     * Tokens start existing when they are minted (`_mint`),\r\n     * and stop existing when they are burned (`_burn`).\r\n     */\r\n    function _exists(uint256 tokenId) internal view virtual returns (bool) {\r\n        return eternalDronesStorage.getOwner(tokenId) != address(0);        \r\n    }\r\n\r\n\r\n    /**\r\n     * @dev Hook that is called before any token transfer. This includes minting\r\n     * and burning.\r\n     *\r\n     * Calling conditions:\r\n     *\r\n     * - When `from` and `to` are both non-zero, ``from``'s `tokenId` will be\r\n     * transferred to `to`.\r\n     * - When `from` is zero, `tokenId` will be minted for `to`.\r\n     * - When `to` is zero, ``from``'s `tokenId` will be burned.\r\n     * - `from` and `to` are never both zero.\r\n     *\r\n     * To learn more about hooks, head to xref:ROOT:extending-contracts.adoc#using-hooks[Using Hooks].\r\n     */\r\n    function _beforeTokenTransfer(\r\n        address from,\r\n        address to,\r\n        uint256 tokenId\r\n    ) internal virtual {}\r\n\r\n    /**\r\n     * @dev Hook that is called after any transfer of tokens. This includes\r\n     * minting and burning.\r\n     *\r\n     * Calling conditions:\r\n     *\r\n     * - when `from` and `to` are both non-zero.\r\n     * - `from` and `to` are never both zero.\r\n     *\r\n     * To learn more about hooks, head to xref:ROOT:extending-contracts.adoc#using-hooks[Using Hooks].\r\n     */\r\n    function _afterTokenTransfer(address from, address to, uint256 tokenId) internal virtual {}\r\n\r\n    /**\r\n     * @dev Safely transfers `tokenId` token from `from` to `to`, checking first that contract recipients\r\n     * are aware of the ERC721 protocol to prevent tokens from being forever locked.\r\n     *\r\n     * `_data` is additional data, it has no specified format and it is sent in call to `to`.\r\n     *\r\n     * This internal function is equivalent to {safeTransferFrom}, and can be used to e.g.\r\n     * implement alternative mechanisms to perform token transfer, such as signature-based.\r\n     *\r\n     * Requirements:\r\n     *\r\n     * - `from` cannot be the zero address.\r\n     * - `to` cannot be the zero address.\r\n     * - `tokenId` token must exist and be owned by `from`.\r\n     * - If `to` refers to a smart contract, it must implement {IERC721Receiver-onERC721Received}, which is called upon a safe transfer.\r\n     *\r\n     * Emits a {Transfer} event.\r\n     */\r\n    function _safeTransfer(address from, address to, uint256 tokenId, bytes memory _data) internal {\r\n        _transfer(from, to, tokenId);\r\n        require(_checkOnERC721Received(from, to, tokenId, _data), \"ERC721: transfer to non ERC721Receiver implementer\");\r\n    }\r\n\r\n    /**\r\n     * @dev Returns whether `spender` is allowed to manage `tokenId`.\r\n     *\r\n     * Requirements:\r\n     *\r\n     * - `tokenId` must exist.\r\n     */\r\n    function _isApprovedOrOwner(address spender, uint256 tokenId) internal view returns (bool) {\r\n        require(_exists(tokenId), \"ERC721: operator query for nonexistent token\");\r\n        address owner = DronesERC721.ownerOf(tokenId);\r\n        return (spender == owner || getApproved(tokenId) == spender || isApprovedForAll(owner, spender));\r\n    }\r\n\r\n    /**\r\n     * @dev Internal function to invoke {IERC721Receiver-onERC721Received} on a target address.\r\n     * The call is not executed if the target address is not a contract.\r\n     *\r\n     * @param from address representing the previous owner of the given token ID\r\n     * @param to target address that will receive the tokens\r\n     * @param tokenId uint256 ID of the token to be transferred\r\n     * @param _data bytes optional data to send along with the call\r\n     * @return bool whether the call correctly returned the expected magic value\r\n     */\r\n    function _checkOnERC721Received(address from, address to, uint256 tokenId, bytes memory _data) private returns (bool) {\r\n        if (to.isContract()) {\r\n            try IERC721Receiver(to).onERC721Received(_msgSender(), from, tokenId, _data) returns (bytes4 retval) {\r\n                return retval == IERC721Receiver.onERC721Received.selector;\r\n            } catch (bytes memory reason) {\r\n                if (reason.length == 0) {\r\n                    revert(\"ERC721: transfer to non ERC721Receiver implementer\");\r\n                } else {\r\n                    assembly {\r\n                        revert(add(32, reason), mload(reason))\r\n                    }\r\n                }\r\n            }\r\n        } else {\r\n            return true;\r\n        }\r\n    }\r\n\r\n\r\n    // Funciones para crear o interactuar con los drones(tokens)\r\n    // No es onlyOwner porque cualquier address puede crear drones (sino solo podria crear el dueno del contrato)\r\n\r\n    function mint(uint256 _alturaMaxima, uint256 _alturaMinima, uint256 _coste, uint _pesticidaAceptado) public  returns (bool) {\r\n\r\n        eternalDronesStorage.incrementTokenId();\r\n        uint256 _tokenId = eternalDronesStorage.getCurrentTokenId();\r\n        \r\n        _mint(_msgSender(), _tokenId, _alturaMaxima, _alturaMinima, _coste, _pesticidaAceptado);\r\n\r\n        return true;\r\n    }\r\n\r\n    function _mint(address to, uint256 tokenId, uint256 _alturaMaxima, uint256 _alturaMinima, uint256 _coste, uint _pesticidaAceptado) internal {\r\n        require(to != address(0), \"ERC721: mint to the zero address\");\r\n        require(!_exists(tokenId), \"ERC721: token already minted\");\r\n\r\n        _beforeTokenTransfer(address(0), to, tokenId);\r\n\r\n        eternalDronesStorage.setBalance(to, eternalDronesStorage.getBalance(to) + 1);\r\n        eternalDronesStorage.setOwner(to, tokenId);\r\n\r\n        DataLibrary.Dron memory specificationsDron; \r\n        specificationsDron.alturaMaxima = _alturaMaxima;\r\n        specificationsDron.alturaMinima = _alturaMinima;\r\n        specificationsDron.coste = _coste;\r\n        specificationsDron.pesticidaAceptado = DataLibrary.Pesticidas(_pesticidaAceptado);            \r\n       \r\n\r\n        eternalDronesStorage.setDronSpecification(tokenId, specificationsDron);\r\n        eternalDronesStorage.addDronIdByOwnew(to, tokenId);\r\n\r\n        emit Transfer(address(0), to, tokenId);\r\n    }\r\n\r\n    function getDronesIdByOwner(address _owner) public view returns (uint256[] memory) {\r\n        return eternalDronesStorage.getDronesIdByOwner(_owner);\r\n    }\r\n\r\n    function getDronSpecification(uint256 _dronId) public view returns(DataLibrary.Dron memory) {\r\n        require(_exists(_dronId), \"ERC721: token doesnt exist\");\r\n        return eternalDronesStorage.getDronSpecification(_dronId);\r\n    }\r\n}",
  "sourcePath": "C:\\Users\\ernesto.romero\\OneDrive\\Documentos\\proyectos_blockchain\\unir_drones\\contracts\\DronesERC721.sol",
  "compiler": {
    "name": "solc",
    "version": "0.8.5+commit.a4f2e591.Emscripten.clang"
  },
  "schemaVersion": "3.4.2",
  "updatedAt": "2022-04-03T12:01:16.914Z",
  "devdoc": {
    "kind": "dev",
    "methods": {
      "approve(address,uint256)": {
        "details": "Gives permission to `to` to transfer `tokenId` token to another account. The approval is cleared when the token is transferred. Only a single account can be approved at a time, so approving the zero address clears previous approvals. Requirements: - The caller must own the token or be an approved operator. - `tokenId` must exist. Emits an {Approval} event."
      },
      "balanceOf(address)": {
        "details": "Returns the number of tokens in ``owner``'s account."
      },
      "getApproved(uint256)": {
        "details": "Returns the account approved for `tokenId` token. Requirements: - `tokenId` must exist."
      },
      "isApprovedForAll(address,address)": {
        "details": "Returns if the `operator` is allowed to manage all of the assets of `owner`. See {setApprovalForAll}"
      },
      "name()": {
        "details": "See {IERC721Metadata-name}."
      },
      "owner()": {
        "details": "Returns the address of the current owner."
      },
      "ownerOf(uint256)": {
        "details": "Returns the owner of the `tokenId` token. Requirements: - `tokenId` must exist."
      },
      "renounceOwnership()": {
        "details": "Leaves the contract without owner. It will not be possible to call `onlyOwner` functions anymore. Can only be called by the current owner. NOTE: Renouncing ownership will leave the contract without an owner, thereby removing any functionality that is only available to the owner."
      },
      "safeTransferFrom(address,address,uint256)": {
        "details": "Safely transfers `tokenId` token from `from` to `to`, checking first that contract recipients are aware of the ERC721 protocol to prevent tokens from being forever locked. Requirements: - `from` cannot be the zero address. - `to` cannot be the zero address. - `tokenId` token must exist and be owned by `from`. - If the caller is not `from`, it must be have been allowed to move this token by either {approve} or {setApprovalForAll}. - If `to` refers to a smart contract, it must implement {IERC721Receiver-onERC721Received}, which is called upon a safe transfer. Emits a {Transfer} event."
      },
      "safeTransferFrom(address,address,uint256,bytes)": {
        "details": "Safely transfers `tokenId` token from `from` to `to`. Requirements: - `from` cannot be the zero address. - `to` cannot be the zero address. - `tokenId` token must exist and be owned by `from`. - If the caller is not `from`, it must be approved to move this token by either {approve} or {setApprovalForAll}. - If `to` refers to a smart contract, it must implement {IERC721Receiver-onERC721Received}, which is called upon a safe transfer. Emits a {Transfer} event."
      },
      "setApprovalForAll(address,bool)": {
        "details": "Approve or remove `operator` as an operator for the caller. Operators can call {transferFrom} or {safeTransferFrom} for any token owned by the caller. Requirements: - The `operator` cannot be the caller. Emits an {ApprovalForAll} event."
      },
      "supportsInterface(bytes4)": {
        "details": "See {IERC165-supportsInterface}."
      },
      "symbol()": {
        "details": "See {IERC721Metadata-symbol}."
      },
      "tokenURI(uint256)": {
        "details": "See {IERC721Metadata-tokenURI}."
      },
      "transferFrom(address,address,uint256)": {
        "details": "Transfers `tokenId` token from `from` to `to`. WARNING: Usage of this method is discouraged, use {safeTransferFrom} whenever possible. Requirements: - `from` cannot be the zero address. - `to` cannot be the zero address. - `tokenId` token must be owned by `from`. - If the caller is not `from`, it must be approved to move this token by either {approve} or {setApprovalForAll}. Emits a {Transfer} event."
      },
      "transferOwnership(address)": {
        "details": "Transfers ownership of the contract to a new account (`newOwner`). Can only be called by the current owner."
      }
    },
    "version": 1
  },
  "userdoc": {
    "kind": "user",
    "methods": {},
    "version": 1
  }
}