{
  "contractName": "EternalParcelasStorage",
  "abi": [
    {
      "inputs": [],
      "name": "getName",
      "outputs": [
        {
          "internalType": "string",
          "name": "",
          "type": "string"
        }
      ],
      "stateMutability": "view",
      "type": "function"
    },
    {
      "inputs": [
        {
          "internalType": "string",
          "name": "name",
          "type": "string"
        }
      ],
      "name": "setName",
      "outputs": [],
      "stateMutability": "nonpayable",
      "type": "function"
    },
    {
      "inputs": [],
      "name": "getSymbol",
      "outputs": [
        {
          "internalType": "string",
          "name": "",
          "type": "string"
        }
      ],
      "stateMutability": "view",
      "type": "function"
    },
    {
      "inputs": [
        {
          "internalType": "string",
          "name": "symbol",
          "type": "string"
        }
      ],
      "name": "setSymbol",
      "outputs": [],
      "stateMutability": "nonpayable",
      "type": "function"
    },
    {
      "inputs": [
        {
          "internalType": "address",
          "name": "addressReceived",
          "type": "address"
        }
      ],
      "name": "getBalance",
      "outputs": [
        {
          "internalType": "uint256",
          "name": "",
          "type": "uint256"
        }
      ],
      "stateMutability": "view",
      "type": "function"
    },
    {
      "inputs": [
        {
          "internalType": "address",
          "name": "addressReceived",
          "type": "address"
        },
        {
          "internalType": "uint256",
          "name": "newBalance",
          "type": "uint256"
        }
      ],
      "name": "setBalance",
      "outputs": [],
      "stateMutability": "nonpayable",
      "type": "function"
    },
    {
      "inputs": [
        {
          "internalType": "uint256",
          "name": "tokenId",
          "type": "uint256"
        }
      ],
      "name": "getOwner",
      "outputs": [
        {
          "internalType": "address",
          "name": "",
          "type": "address"
        }
      ],
      "stateMutability": "view",
      "type": "function"
    },
    {
      "inputs": [
        {
          "internalType": "address",
          "name": "addressReceived",
          "type": "address"
        },
        {
          "internalType": "uint256",
          "name": "tokenId",
          "type": "uint256"
        }
      ],
      "name": "setOwner",
      "outputs": [],
      "stateMutability": "nonpayable",
      "type": "function"
    },
    {
      "inputs": [
        {
          "internalType": "uint256",
          "name": "tokenId",
          "type": "uint256"
        }
      ],
      "name": "getTokenApproval",
      "outputs": [
        {
          "internalType": "address",
          "name": "",
          "type": "address"
        }
      ],
      "stateMutability": "view",
      "type": "function"
    },
    {
      "inputs": [
        {
          "internalType": "address",
          "name": "to",
          "type": "address"
        },
        {
          "internalType": "uint256",
          "name": "tokenId",
          "type": "uint256"
        }
      ],
      "name": "setTokenApproval",
      "outputs": [],
      "stateMutability": "nonpayable",
      "type": "function"
    },
    {
      "inputs": [
        {
          "internalType": "address",
          "name": "owner",
          "type": "address"
        },
        {
          "internalType": "address",
          "name": "operator",
          "type": "address"
        }
      ],
      "name": "getOperatorApproval",
      "outputs": [
        {
          "internalType": "bool",
          "name": "",
          "type": "bool"
        }
      ],
      "stateMutability": "view",
      "type": "function"
    },
    {
      "inputs": [
        {
          "internalType": "address",
          "name": "owner",
          "type": "address"
        },
        {
          "internalType": "address",
          "name": "operator",
          "type": "address"
        },
        {
          "internalType": "bool",
          "name": "approved",
          "type": "bool"
        }
      ],
      "name": "setOperatorApproval",
      "outputs": [],
      "stateMutability": "nonpayable",
      "type": "function"
    },
    {
      "inputs": [],
      "name": "incrementTokenId",
      "outputs": [],
      "stateMutability": "nonpayable",
      "type": "function"
    },
    {
      "inputs": [],
      "name": "getCurrentTokenId",
      "outputs": [
        {
          "internalType": "uint256",
          "name": "",
          "type": "uint256"
        }
      ],
      "stateMutability": "view",
      "type": "function"
    },
    {
      "inputs": [
        {
          "internalType": "uint256",
          "name": "_parcelaId",
          "type": "uint256"
        }
      ],
      "name": "getParcelaSpecification",
      "outputs": [
        {
          "components": [
            {
              "internalType": "uint256",
              "name": "alturaMaxima",
              "type": "uint256"
            },
            {
              "internalType": "uint256",
              "name": "alturaMinima",
              "type": "uint256"
            },
            {
              "internalType": "enum DataLibrary.Pesticidas",
              "name": "pesticidaAceptado",
              "type": "uint8"
            }
          ],
          "internalType": "struct DataLibrary.Parcela",
          "name": "",
          "type": "tuple"
        }
      ],
      "stateMutability": "view",
      "type": "function"
    },
    {
      "inputs": [
        {
          "internalType": "uint256",
          "name": "_parcelaId",
          "type": "uint256"
        },
        {
          "components": [
            {
              "internalType": "uint256",
              "name": "alturaMaxima",
              "type": "uint256"
            },
            {
              "internalType": "uint256",
              "name": "alturaMinima",
              "type": "uint256"
            },
            {
              "internalType": "enum DataLibrary.Pesticidas",
              "name": "pesticidaAceptado",
              "type": "uint8"
            }
          ],
          "internalType": "struct DataLibrary.Parcela",
          "name": "_parcelaSpecification",
          "type": "tuple"
        }
      ],
      "name": "setParcelaSpecification",
      "outputs": [],
      "stateMutability": "nonpayable",
      "type": "function"
    },
    {
      "inputs": [
        {
          "internalType": "address",
          "name": "_owner",
          "type": "address"
        }
      ],
      "name": "getParcelasIdByOwner",
      "outputs": [
        {
          "internalType": "uint256[]",
          "name": "",
          "type": "uint256[]"
        }
      ],
      "stateMutability": "view",
      "type": "function"
    },
    {
      "inputs": [
        {
          "internalType": "address",
          "name": "_owner",
          "type": "address"
        },
        {
          "internalType": "uint256",
          "name": "parcelaId",
          "type": "uint256"
        }
      ],
      "name": "addParcelaIdByOwnew",
      "outputs": [],
      "stateMutability": "nonpayable",
      "type": "function"
    }
  ],
  "bytecode": "0x608060405234801561001057600080fd5b5061128b806100206000396000f3fe608060405234801561001057600080fd5b50600436106101165760003560e01c8063ab3b87fe116100a2578063e30443bc11610071578063e30443bc146102cb578063e4c14a88146102e7578063e93fe29014610303578063f8b2cb4f1461031f578063fe4dd8d91461034f57610116565b8063ab3b87fe14610247578063b84c824614610263578063c41a360a1461027f578063c47f0027146102af57610116565b806345a0feb9116100e957806345a0feb9146101a35780634d1df314146101bf5780634f3130fa146101ef57806356189236146101f9578063a423aa501461021757610116565b80630514b26c1461011b578063150704011461014b57806317d7de7c1461016957806320e287ed14610187575b600080fd5b61013560048036038101906101309190610c03565b61037f565b6040516101429190610f05565b60405180910390f35b610153610413565b6040516101609190610f20565b60405180910390f35b6101716104a5565b60405161017e9190610f20565b60405180910390f35b6101a1600480360381019061019c9190610c96565b610537565b005b6101bd60048036038101906101b89190610c96565b6105a1565b005b6101d960048036038101906101d49190610d1f565b6105f7565b6040516101e69190610f42565b60405180910390f35b6101f7610673565b005b61020161067f565b60405161020e9190610f5d565b60405180910390f35b610231600480360381019061022c9190610bd6565b610690565b60405161023e9190610ee3565b60405180910390f35b610261600480360381019061025c9190610c96565b610727565b005b61027d60048036038101906102789190610cd6565b61077d565b005b61029960048036038101906102949190610d1f565b610797565b6040516102a69190610ec8565b60405180910390f35b6102c960048036038101906102c49190610cd6565b6107d4565b005b6102e560048036038101906102e09190610c96565b6107ee565b005b61030160048036038101906102fc9190610d4c565b610836565b005b61031d60048036038101906103189190610c43565b610895565b005b61033960048036038101906103349190610bd6565b61092e565b6040516103469190610f5d565b60405180910390f35b61036960048036038101906103649190610d1f565b610977565b6040516103769190610ec8565b60405180910390f35b6000600760008473ffffffffffffffffffffffffffffffffffffffff1673ffffffffffffffffffffffffffffffffffffffff16815260200190815260200160002060008373ffffffffffffffffffffffffffffffffffffffff1673ffffffffffffffffffffffffffffffffffffffff16815260200190815260200160002060009054906101000a900460ff16905092915050565b606060028054610422906110d2565b80601f016020809104026020016040519081016040528092919081815260200182805461044e906110d2565b801561049b5780601f106104705761010080835404028352916020019161049b565b820191906000526020600020905b81548152906001019060200180831161047e57829003601f168201915b5050505050905090565b6060600180546104b4906110d2565b80601f01602080910402602001604051908101604052809291908181526020018280546104e0906110d2565b801561052d5780601f106105025761010080835404028352916020019161052d565b820191906000526020600020905b81548152906001019060200180831161051057829003601f168201915b5050505050905090565b600860008373ffffffffffffffffffffffffffffffffffffffff1673ffffffffffffffffffffffffffffffffffffffff1681526020019081526020016000208190806001815401808255809150506001900390600052602060002001600090919091909150555050565b816006600083815260200190815260200160002060006101000a81548173ffffffffffffffffffffffffffffffffffffffff021916908373ffffffffffffffffffffffffffffffffffffffff1602179055505050565b6105ff6109d8565b6003600083815260200190815260200160002060405180606001604052908160008201548152602001600182015481526020016002820160009054906101000a900460ff16600481111561065657610655611135565b5b600481111561066857610667611135565b5b815250509050919050565b61067d60006109b4565b565b600061068b60006109ca565b905090565b6060600860008373ffffffffffffffffffffffffffffffffffffffff1673ffffffffffffffffffffffffffffffffffffffff16815260200190815260200160002080548060200260200160405190810160405280929190818152602001828054801561071b57602002820191906000526020600020905b815481526020019060010190808311610707575b50505050509050919050565b816004600083815260200190815260200160002060006101000a81548173ffffffffffffffffffffffffffffffffffffffff021916908373ffffffffffffffffffffffffffffffffffffffff1602179055505050565b8060029080519060200190610793929190610a0b565b5050565b60006004600083815260200190815260200160002060009054906101000a900473ffffffffffffffffffffffffffffffffffffffff169050919050565b80600190805190602001906107ea929190610a0b565b5050565b80600560008473ffffffffffffffffffffffffffffffffffffffff1673ffffffffffffffffffffffffffffffffffffffff168152602001908152602001600020819055505050565b8060036000848152602001908152602001600020600082015181600001556020820151816001015560408201518160020160006101000a81548160ff0219169083600481111561088957610888611135565b5b02179055509050505050565b80600760008573ffffffffffffffffffffffffffffffffffffffff1673ffffffffffffffffffffffffffffffffffffffff16815260200190815260200160002060008473ffffffffffffffffffffffffffffffffffffffff1673ffffffffffffffffffffffffffffffffffffffff16815260200190815260200160002060006101000a81548160ff021916908315150217905550505050565b6000600560008373ffffffffffffffffffffffffffffffffffffffff1673ffffffffffffffffffffffffffffffffffffffff168152602001908152602001600020549050919050565b60006006600083815260200190815260200160002060009054906101000a900473ffffffffffffffffffffffffffffffffffffffff169050919050565b6001816000016000828254019250508190555050565b600081600001549050919050565b6040518060600160405280600081526020016000815260200160006004811115610a0557610a04611135565b5b81525090565b828054610a17906110d2565b90600052602060002090601f016020900481019282610a395760008555610a80565b82601f10610a5257805160ff1916838001178555610a80565b82800160010185558215610a80579182015b82811115610a7f578251825591602001919060010190610a64565b5b509050610a8d9190610a91565b5090565b5b80821115610aaa576000816000905550600101610a92565b5090565b6000610ac1610abc84610f9d565b610f78565b905082815260208101848484011115610add57610adc6111cc565b5b610ae8848285611090565b509392505050565b600081359050610aff81611200565b92915050565b600081359050610b1481611217565b92915050565b600081359050610b298161122e565b92915050565b600082601f830112610b4457610b436111c2565b5b8135610b54848260208601610aae565b91505092915050565b600060608284031215610b7357610b726111c7565b5b610b7d6060610f78565b90506000610b8d84828501610bc1565b6000830152506020610ba184828501610bc1565b6020830152506040610bb584828501610b1a565b60408301525092915050565b600081359050610bd08161123e565b92915050565b600060208284031215610bec57610beb6111d6565b5b6000610bfa84828501610af0565b91505092915050565b60008060408385031215610c1a57610c196111d6565b5b6000610c2885828601610af0565b9250506020610c3985828601610af0565b9150509250929050565b600080600060608486031215610c5c57610c5b6111d6565b5b6000610c6a86828701610af0565b9350506020610c7b86828701610af0565b9250506040610c8c86828701610b05565b9150509250925092565b60008060408385031215610cad57610cac6111d6565b5b6000610cbb85828601610af0565b9250506020610ccc85828601610bc1565b9150509250929050565b600060208284031215610cec57610ceb6111d6565b5b600082013567ffffffffffffffff811115610d0a57610d096111d1565b5b610d1684828501610b2f565b91505092915050565b600060208284031215610d3557610d346111d6565b5b6000610d4384828501610bc1565b91505092915050565b60008060808385031215610d6357610d626111d6565b5b6000610d7185828601610bc1565b9250506020610d8285828601610b5d565b9150509250929050565b6000610d988383610eaa565b60208301905092915050565b610dad81611023565b82525050565b6000610dbe82610fde565b610dc88185611001565b9350610dd383610fce565b8060005b83811015610e04578151610deb8882610d8c565b9750610df683610ff4565b925050600181019050610dd7565b5085935050505092915050565b610e1a81611035565b82525050565b610e298161107e565b82525050565b6000610e3a82610fe9565b610e448185611012565b9350610e5481856020860161109f565b610e5d816111db565b840191505092915050565b606082016000820151610e7e6000850182610eaa565b506020820151610e916020850182610eaa565b506040820151610ea46040850182610e20565b50505050565b610eb381611074565b82525050565b610ec281611074565b82525050565b6000602082019050610edd6000830184610da4565b92915050565b60006020820190508181036000830152610efd8184610db3565b905092915050565b6000602082019050610f1a6000830184610e11565b92915050565b60006020820190508181036000830152610f3a8184610e2f565b905092915050565b6000606082019050610f576000830184610e68565b92915050565b6000602082019050610f726000830184610eb9565b92915050565b6000610f82610f93565b9050610f8e8282611104565b919050565b6000604051905090565b600067ffffffffffffffff821115610fb857610fb7611193565b5b610fc1826111db565b9050602081019050919050565b6000819050602082019050919050565b600081519050919050565b600081519050919050565b6000602082019050919050565b600082825260208201905092915050565b600082825260208201905092915050565b600061102e82611054565b9050919050565b60008115159050919050565b600081905061104f826111ec565b919050565b600073ffffffffffffffffffffffffffffffffffffffff82169050919050565b6000819050919050565b600061108982611041565b9050919050565b82818337600083830152505050565b60005b838110156110bd5780820151818401526020810190506110a2565b838111156110cc576000848401525b50505050565b600060028204905060018216806110ea57607f821691505b602082108114156110fe576110fd611164565b5b50919050565b61110d826111db565b810181811067ffffffffffffffff8211171561112c5761112b611193565b5b80604052505050565b7f4e487b7100000000000000000000000000000000000000000000000000000000600052602160045260246000fd5b7f4e487b7100000000000000000000000000000000000000000000000000000000600052602260045260246000fd5b7f4e487b7100000000000000000000000000000000000000000000000000000000600052604160045260246000fd5b600080fd5b600080fd5b600080fd5b600080fd5b600080fd5b6000601f19601f8301169050919050565b600581106111fd576111fc611135565b5b50565b61120981611023565b811461121457600080fd5b50565b61122081611035565b811461122b57600080fd5b50565b6005811061123b57600080fd5b50565b61124781611074565b811461125257600080fd5b5056fea2646970667358221220074b2ba935d800d8a8086a8e6ea8cf9429fb5636285617f3d69f51eb8ec47a0564736f6c63430008050033",
  "immutableReferences": {},
  "source": "// SPDX-License-Identifier: MIT\r\npragma solidity ^0.8.0;\r\nimport \"@openzeppelin/contracts/access/Ownable.sol\";\r\nimport \"@openzeppelin/contracts/utils/Counters.sol\";\r\nimport \"./DataLibrary.sol\";\r\n\r\n\r\ncontract EternalParcelasStorage {\r\n\r\n    using Counters for Counters.Counter; \r\n\r\n    Counters.Counter private _parcelasIds;\r\n   \r\n\r\n\r\n    // Token name\r\n    string private _name;\r\n\r\n    // Token symbol\r\n    string private _symbol;\r\n\r\n    \r\n\r\n    // Mapping with relations between dronId and specifications\r\n    mapping(uint256 => DataLibrary.Parcela) private parcelaSpecification;\r\n\r\n    // Mapping from token ID to owner address\r\n    mapping(uint256 => address) private _owners;\r\n\r\n    // Mapping owner address to token count\r\n    mapping(address => uint256) private _balances;\r\n\r\n    // Mapping from token ID to approved address\r\n    mapping(uint256 => address) private _tokenApprovals;\r\n\r\n    // Mapping from owner to operator approvals\r\n    mapping(address => mapping(address => bool)) private _operatorApprovals;\r\n\r\n    mapping(address => uint256[]) private parcelasIdByOwner;\r\n\r\n\r\n\r\n    function getName() public view returns (string memory) {\r\n        return _name;\r\n    }\r\n\r\n    function setName(string memory name) public {\r\n        _name = name;\r\n    }\r\n\r\n    function getSymbol() public view returns (string memory) {\r\n        return _symbol;\r\n    }\r\n\r\n    function setSymbol(string memory symbol) public {\r\n        _symbol = symbol;\r\n    }\r\n\r\n    function getBalance(address addressReceived) public view returns (uint256) {\r\n        return _balances[addressReceived];\r\n    }\r\n\r\n    function setBalance(address addressReceived, uint256 newBalance) public {\r\n        _balances[addressReceived] = newBalance;\r\n    }\r\n\r\n    function getOwner(uint256 tokenId) public view returns (address) {\r\n        return _owners[tokenId];\r\n    }\r\n\r\n    function setOwner(address addressReceived, uint256 tokenId) public {\r\n        _owners[tokenId] = addressReceived;\r\n    }\r\n\r\n    function getTokenApproval(uint256 tokenId) public view returns (address) {\r\n        return _tokenApprovals[tokenId];\r\n    }\r\n\r\n    function setTokenApproval(address to, uint256 tokenId) public {\r\n        _tokenApprovals[tokenId] = to;        \r\n    }\r\n\r\n    function getOperatorApproval(address owner, address operator) public view returns (bool) {\r\n        return _operatorApprovals[owner][operator];\r\n    }\r\n    function setOperatorApproval(address owner, address operator, bool approved) public {\r\n         _operatorApprovals[owner][operator] = approved;\r\n\r\n    }\r\n\r\n    function incrementTokenId() public {\r\n        _parcelasIds.increment();\r\n        \r\n    }\r\n\r\n    function getCurrentTokenId() public view returns (uint256) {\r\n        return _parcelasIds.current();\r\n    }\r\n\r\n    function getParcelaSpecification(uint256 _parcelaId) public view returns (DataLibrary.Parcela memory) {\r\n        return parcelaSpecification[_parcelaId];\r\n    }\r\n\r\n    function setParcelaSpecification(uint256 _parcelaId, DataLibrary.Parcela memory _parcelaSpecification) public {\r\n        parcelaSpecification[_parcelaId] = _parcelaSpecification;\r\n    }\r\n\r\n    function getParcelasIdByOwner(address _owner) public view returns (uint256[] memory) {\r\n        return parcelasIdByOwner[_owner];\r\n    }\r\n\r\n    function addParcelaIdByOwnew(address _owner, uint256 parcelaId) public {\r\n        parcelasIdByOwner[_owner].push(parcelaId);\r\n    }\r\n\r\n   \r\n    \r\n\r\n}",
  "sourcePath": "C:\\Users\\ernesto.romero\\OneDrive\\Documentos\\proyectos_blockchain\\unir_drones\\contracts\\EternalParcelasStorage.sol",
  "compiler": {
    "name": "solc",
    "version": "0.8.5+commit.a4f2e591.Emscripten.clang"
  },
  "schemaVersion": "3.4.2",
  "updatedAt": "2022-04-03T12:01:17.018Z",
  "devdoc": {
    "kind": "dev",
    "methods": {},
    "version": 1
  },
  "userdoc": {
    "kind": "user",
    "methods": {},
    "version": 1
  }
}