{
  "contractName": "EternalDronesStorage",
  "abi": [
    {
      "inputs": [],
      "name": "getName",
      "outputs": [
        {
          "internalType": "string",
          "name": "",
          "type": "string"
        }
      ],
      "stateMutability": "view",
      "type": "function"
    },
    {
      "inputs": [
        {
          "internalType": "string",
          "name": "name",
          "type": "string"
        }
      ],
      "name": "setName",
      "outputs": [],
      "stateMutability": "nonpayable",
      "type": "function"
    },
    {
      "inputs": [],
      "name": "getSymbol",
      "outputs": [
        {
          "internalType": "string",
          "name": "",
          "type": "string"
        }
      ],
      "stateMutability": "view",
      "type": "function"
    },
    {
      "inputs": [
        {
          "internalType": "string",
          "name": "symbol",
          "type": "string"
        }
      ],
      "name": "setSymbol",
      "outputs": [],
      "stateMutability": "nonpayable",
      "type": "function"
    },
    {
      "inputs": [
        {
          "internalType": "address",
          "name": "addressReceived",
          "type": "address"
        }
      ],
      "name": "getBalance",
      "outputs": [
        {
          "internalType": "uint256",
          "name": "",
          "type": "uint256"
        }
      ],
      "stateMutability": "view",
      "type": "function"
    },
    {
      "inputs": [
        {
          "internalType": "address",
          "name": "addressReceived",
          "type": "address"
        },
        {
          "internalType": "uint256",
          "name": "newBalance",
          "type": "uint256"
        }
      ],
      "name": "setBalance",
      "outputs": [],
      "stateMutability": "nonpayable",
      "type": "function"
    },
    {
      "inputs": [
        {
          "internalType": "uint256",
          "name": "tokenId",
          "type": "uint256"
        }
      ],
      "name": "getOwner",
      "outputs": [
        {
          "internalType": "address",
          "name": "",
          "type": "address"
        }
      ],
      "stateMutability": "view",
      "type": "function"
    },
    {
      "inputs": [
        {
          "internalType": "address",
          "name": "addressReceived",
          "type": "address"
        },
        {
          "internalType": "uint256",
          "name": "tokenId",
          "type": "uint256"
        }
      ],
      "name": "setOwner",
      "outputs": [],
      "stateMutability": "nonpayable",
      "type": "function"
    },
    {
      "inputs": [
        {
          "internalType": "uint256",
          "name": "tokenId",
          "type": "uint256"
        }
      ],
      "name": "getTokenApproval",
      "outputs": [
        {
          "internalType": "address",
          "name": "",
          "type": "address"
        }
      ],
      "stateMutability": "view",
      "type": "function"
    },
    {
      "inputs": [
        {
          "internalType": "address",
          "name": "to",
          "type": "address"
        },
        {
          "internalType": "uint256",
          "name": "tokenId",
          "type": "uint256"
        }
      ],
      "name": "setTokenApproval",
      "outputs": [],
      "stateMutability": "nonpayable",
      "type": "function"
    },
    {
      "inputs": [
        {
          "internalType": "address",
          "name": "owner",
          "type": "address"
        },
        {
          "internalType": "address",
          "name": "operator",
          "type": "address"
        }
      ],
      "name": "getOperatorApproval",
      "outputs": [
        {
          "internalType": "bool",
          "name": "",
          "type": "bool"
        }
      ],
      "stateMutability": "view",
      "type": "function"
    },
    {
      "inputs": [
        {
          "internalType": "address",
          "name": "owner",
          "type": "address"
        },
        {
          "internalType": "address",
          "name": "operator",
          "type": "address"
        },
        {
          "internalType": "bool",
          "name": "approved",
          "type": "bool"
        }
      ],
      "name": "setOperatorApproval",
      "outputs": [],
      "stateMutability": "nonpayable",
      "type": "function"
    },
    {
      "inputs": [],
      "name": "incrementTokenId",
      "outputs": [],
      "stateMutability": "nonpayable",
      "type": "function"
    },
    {
      "inputs": [],
      "name": "getCurrentTokenId",
      "outputs": [
        {
          "internalType": "uint256",
          "name": "",
          "type": "uint256"
        }
      ],
      "stateMutability": "view",
      "type": "function"
    },
    {
      "inputs": [
        {
          "internalType": "uint256",
          "name": "_dronId",
          "type": "uint256"
        }
      ],
      "name": "getDronSpecification",
      "outputs": [
        {
          "components": [
            {
              "internalType": "uint256",
              "name": "alturaMaxima",
              "type": "uint256"
            },
            {
              "internalType": "uint256",
              "name": "alturaMinima",
              "type": "uint256"
            },
            {
              "internalType": "uint256",
              "name": "coste",
              "type": "uint256"
            },
            {
              "internalType": "enum DataLibrary.Pesticidas",
              "name": "pesticidaAceptado",
              "type": "uint8"
            }
          ],
          "internalType": "struct DataLibrary.Dron",
          "name": "",
          "type": "tuple"
        }
      ],
      "stateMutability": "view",
      "type": "function"
    },
    {
      "inputs": [
        {
          "internalType": "uint256",
          "name": "_dronId",
          "type": "uint256"
        },
        {
          "components": [
            {
              "internalType": "uint256",
              "name": "alturaMaxima",
              "type": "uint256"
            },
            {
              "internalType": "uint256",
              "name": "alturaMinima",
              "type": "uint256"
            },
            {
              "internalType": "uint256",
              "name": "coste",
              "type": "uint256"
            },
            {
              "internalType": "enum DataLibrary.Pesticidas",
              "name": "pesticidaAceptado",
              "type": "uint8"
            }
          ],
          "internalType": "struct DataLibrary.Dron",
          "name": "_dronSpecification",
          "type": "tuple"
        }
      ],
      "name": "setDronSpecification",
      "outputs": [],
      "stateMutability": "nonpayable",
      "type": "function"
    },
    {
      "inputs": [
        {
          "internalType": "address",
          "name": "_owner",
          "type": "address"
        }
      ],
      "name": "getDronesIdByOwner",
      "outputs": [
        {
          "internalType": "uint256[]",
          "name": "",
          "type": "uint256[]"
        }
      ],
      "stateMutability": "view",
      "type": "function"
    },
    {
      "inputs": [
        {
          "internalType": "address",
          "name": "_owner",
          "type": "address"
        },
        {
          "internalType": "uint256",
          "name": "dronId",
          "type": "uint256"
        }
      ],
      "name": "addDronIdByOwnew",
      "outputs": [],
      "stateMutability": "nonpayable",
      "type": "function"
    }
  ],
  "bytecode": "0x608060405234801561001057600080fd5b506112cd806100206000396000f3fe608060405234801561001057600080fd5b50600436106101165760003560e01c8063ab3b87fe116100a2578063d19c218511610071578063d19c2185146102b7578063e30443bc146102e7578063e93fe29014610303578063f8b2cb4f1461031f578063fe4dd8d91461034f57610116565b8063ab3b87fe14610233578063b84c82461461024f578063c41a360a1461026b578063c47f00271461029b57610116565b806345a0feb9116100e957806345a0feb9146101b75780634f3130fa146101d357806353d84a4e146101dd57806356189236146101f9578063a4faf3e21461021757610116565b80630514b26c1461011b578063150704011461014b57806317d7de7c146101695780633c0cad3514610187575b600080fd5b61013560048036038101906101309190610c32565b61037f565b6040516101429190610f47565b60405180910390f35b610153610413565b6040516101609190610f62565b60405180910390f35b6101716104a5565b60405161017e9190610f62565b60405180910390f35b6101a1600480360381019061019c9190610d4e565b610537565b6040516101ae9190610f84565b60405180910390f35b6101d160048036038101906101cc9190610cc5565b6105bd565b005b6101db610613565b005b6101f760048036038101906101f29190610d7b565b61061f565b005b610201610688565b60405161020e9190610f9f565b60405180910390f35b610231600480360381019061022c9190610cc5565b610699565b005b61024d60048036038101906102489190610cc5565b610703565b005b61026960048036038101906102649190610d05565b610759565b005b61028560048036038101906102809190610d4e565b610773565b6040516102929190610f0a565b60405180910390f35b6102b560048036038101906102b09190610d05565b6107b0565b005b6102d160048036038101906102cc9190610c05565b6107ca565b6040516102de9190610f25565b60405180910390f35b61030160048036038101906102fc9190610cc5565b610861565b005b61031d60048036038101906103189190610c72565b6108a9565b005b61033960048036038101906103349190610c05565b610942565b6040516103469190610f9f565b60405180910390f35b61036960048036038101906103649190610d4e565b61098b565b6040516103769190610f0a565b60405180910390f35b6000600760008473ffffffffffffffffffffffffffffffffffffffff1673ffffffffffffffffffffffffffffffffffffffff16815260200190815260200160002060008373ffffffffffffffffffffffffffffffffffffffff1673ffffffffffffffffffffffffffffffffffffffff16815260200190815260200160002060009054906101000a900460ff16905092915050565b60606002805461042290611114565b80601f016020809104026020016040519081016040528092919081815260200182805461044e90611114565b801561049b5780601f106104705761010080835404028352916020019161049b565b820191906000526020600020905b81548152906001019060200180831161047e57829003601f168201915b5050505050905090565b6060600180546104b490611114565b80601f01602080910402602001604051908101604052809291908181526020018280546104e090611114565b801561052d5780601f106105025761010080835404028352916020019161052d565b820191906000526020600020905b81548152906001019060200180831161051057829003601f168201915b5050505050905090565b61053f6109ec565b600360008381526020019081526020016000206040518060800160405290816000820154815260200160018201548152602001600282015481526020016003820160009054906101000a900460ff1660048111156105a05761059f611177565b5b60048111156105b2576105b1611177565b5b815250509050919050565b816006600083815260200190815260200160002060006101000a81548173ffffffffffffffffffffffffffffffffffffffff021916908373ffffffffffffffffffffffffffffffffffffffff1602179055505050565b61061d60006109c8565b565b806003600084815260200190815260200160002060008201518160000155602082015181600101556040820151816002015560608201518160030160006101000a81548160ff0219169083600481111561067c5761067b611177565b5b02179055509050505050565b600061069460006109de565b905090565b600860008373ffffffffffffffffffffffffffffffffffffffff1673ffffffffffffffffffffffffffffffffffffffff1681526020019081526020016000208190806001815401808255809150506001900390600052602060002001600090919091909150555050565b816004600083815260200190815260200160002060006101000a81548173ffffffffffffffffffffffffffffffffffffffff021916908373ffffffffffffffffffffffffffffffffffffffff1602179055505050565b806002908051906020019061076f929190610a26565b5050565b60006004600083815260200190815260200160002060009054906101000a900473ffffffffffffffffffffffffffffffffffffffff169050919050565b80600190805190602001906107c6929190610a26565b5050565b6060600860008373ffffffffffffffffffffffffffffffffffffffff1673ffffffffffffffffffffffffffffffffffffffff16815260200190815260200160002080548060200260200160405190810160405280929190818152602001828054801561085557602002820191906000526020600020905b815481526020019060010190808311610841575b50505050509050919050565b80600560008473ffffffffffffffffffffffffffffffffffffffff1673ffffffffffffffffffffffffffffffffffffffff168152602001908152602001600020819055505050565b80600760008573ffffffffffffffffffffffffffffffffffffffff1673ffffffffffffffffffffffffffffffffffffffff16815260200190815260200160002060008473ffffffffffffffffffffffffffffffffffffffff1673ffffffffffffffffffffffffffffffffffffffff16815260200190815260200160002060006101000a81548160ff021916908315150217905550505050565b6000600560008373ffffffffffffffffffffffffffffffffffffffff1673ffffffffffffffffffffffffffffffffffffffff168152602001908152602001600020549050919050565b60006006600083815260200190815260200160002060009054906101000a900473ffffffffffffffffffffffffffffffffffffffff169050919050565b6001816000016000828254019250508190555050565b600081600001549050919050565b604051806080016040528060008152602001600081526020016000815260200160006004811115610a2057610a1f611177565b5b81525090565b828054610a3290611114565b90600052602060002090601f016020900481019282610a545760008555610a9b565b82601f10610a6d57805160ff1916838001178555610a9b565b82800160010185558215610a9b579182015b82811115610a9a578251825591602001919060010190610a7f565b5b509050610aa89190610aac565b5090565b5b80821115610ac5576000816000905550600101610aad565b5090565b6000610adc610ad784610fdf565b610fba565b905082815260208101848484011115610af857610af761120e565b5b610b038482856110d2565b509392505050565b600081359050610b1a81611242565b92915050565b600081359050610b2f81611259565b92915050565b600081359050610b4481611270565b92915050565b600082601f830112610b5f57610b5e611204565b5b8135610b6f848260208601610ac9565b91505092915050565b600060808284031215610b8e57610b8d611209565b5b610b986080610fba565b90506000610ba884828501610bf0565b6000830152506020610bbc84828501610bf0565b6020830152506040610bd084828501610bf0565b6040830152506060610be484828501610b35565b60608301525092915050565b600081359050610bff81611280565b92915050565b600060208284031215610c1b57610c1a611218565b5b6000610c2984828501610b0b565b91505092915050565b60008060408385031215610c4957610c48611218565b5b6000610c5785828601610b0b565b9250506020610c6885828601610b0b565b9150509250929050565b600080600060608486031215610c8b57610c8a611218565b5b6000610c9986828701610b0b565b9350506020610caa86828701610b0b565b9250506040610cbb86828701610b20565b9150509250925092565b60008060408385031215610cdc57610cdb611218565b5b6000610cea85828601610b0b565b9250506020610cfb85828601610bf0565b9150509250929050565b600060208284031215610d1b57610d1a611218565b5b600082013567ffffffffffffffff811115610d3957610d38611213565b5b610d4584828501610b4a565b91505092915050565b600060208284031215610d6457610d63611218565b5b6000610d7284828501610bf0565b91505092915050565b60008060a08385031215610d9257610d91611218565b5b6000610da085828601610bf0565b9250506020610db185828601610b78565b9150509250929050565b6000610dc78383610eec565b60208301905092915050565b610ddc81611065565b82525050565b6000610ded82611020565b610df78185611043565b9350610e0283611010565b8060005b83811015610e33578151610e1a8882610dbb565b9750610e2583611036565b925050600181019050610e06565b5085935050505092915050565b610e4981611077565b82525050565b610e58816110c0565b82525050565b6000610e698261102b565b610e738185611054565b9350610e838185602086016110e1565b610e8c8161121d565b840191505092915050565b608082016000820151610ead6000850182610eec565b506020820151610ec06020850182610eec565b506040820151610ed36040850182610eec565b506060820151610ee66060850182610e4f565b50505050565b610ef5816110b6565b82525050565b610f04816110b6565b82525050565b6000602082019050610f1f6000830184610dd3565b92915050565b60006020820190508181036000830152610f3f8184610de2565b905092915050565b6000602082019050610f5c6000830184610e40565b92915050565b60006020820190508181036000830152610f7c8184610e5e565b905092915050565b6000608082019050610f996000830184610e97565b92915050565b6000602082019050610fb46000830184610efb565b92915050565b6000610fc4610fd5565b9050610fd08282611146565b919050565b6000604051905090565b600067ffffffffffffffff821115610ffa57610ff96111d5565b5b6110038261121d565b9050602081019050919050565b6000819050602082019050919050565b600081519050919050565b600081519050919050565b6000602082019050919050565b600082825260208201905092915050565b600082825260208201905092915050565b600061107082611096565b9050919050565b60008115159050919050565b60008190506110918261122e565b919050565b600073ffffffffffffffffffffffffffffffffffffffff82169050919050565b6000819050919050565b60006110cb82611083565b9050919050565b82818337600083830152505050565b60005b838110156110ff5780820151818401526020810190506110e4565b8381111561110e576000848401525b50505050565b6000600282049050600182168061112c57607f821691505b602082108114156111405761113f6111a6565b5b50919050565b61114f8261121d565b810181811067ffffffffffffffff8211171561116e5761116d6111d5565b5b80604052505050565b7f4e487b7100000000000000000000000000000000000000000000000000000000600052602160045260246000fd5b7f4e487b7100000000000000000000000000000000000000000000000000000000600052602260045260246000fd5b7f4e487b7100000000000000000000000000000000000000000000000000000000600052604160045260246000fd5b600080fd5b600080fd5b600080fd5b600080fd5b600080fd5b6000601f19601f8301169050919050565b6005811061123f5761123e611177565b5b50565b61124b81611065565b811461125657600080fd5b50565b61126281611077565b811461126d57600080fd5b50565b6005811061127d57600080fd5b50565b611289816110b6565b811461129457600080fd5b5056fea2646970667358221220c8ea89b6b5d9e0c5c5a38d7942ebc7ac1fdb0823347215ae84aa8ab3e9cbdd7f64736f6c63430008050033",
  "immutableReferences": {},
  "source": "// SPDX-License-Identifier: MIT\r\npragma solidity ^0.8.0;\r\nimport \"@openzeppelin/contracts/access/Ownable.sol\";\r\nimport \"@openzeppelin/contracts/utils/Counters.sol\";\r\nimport \"./DataLibrary.sol\";\r\n\r\n\r\ncontract EternalDronesStorage {\r\n\r\n    using Counters for Counters.Counter; \r\n\r\n    Counters.Counter private _dronesIds;\r\n   \r\n\r\n\r\n    // Token name\r\n    string private _name;\r\n\r\n    // Token symbol\r\n    string private _symbol;\r\n\r\n    \r\n\r\n    // Mapping with relations between dronId and specifications\r\n    mapping(uint256 => DataLibrary.Dron) private dronSpecification;\r\n\r\n    // Mapping from token ID to owner address\r\n    mapping(uint256 => address) private _owners;\r\n\r\n    // Mapping owner address to token count\r\n    mapping(address => uint256) private _balances;\r\n\r\n    // Mapping from token ID to approved address\r\n    mapping(uint256 => address) private _tokenApprovals;\r\n\r\n    // Mapping from owner to operator approvals\r\n    mapping(address => mapping(address => bool)) private _operatorApprovals;\r\n\r\n    mapping(address => uint256[]) private dronesIdByOwner;\r\n\r\n\r\n\r\n    function getName() public view returns (string memory) {\r\n        return _name;\r\n    }\r\n\r\n    function setName(string memory name) public {\r\n        _name = name;\r\n    }\r\n\r\n    function getSymbol() public view returns (string memory) {\r\n        return _symbol;\r\n    }\r\n\r\n    function setSymbol(string memory symbol) public {\r\n        _symbol = symbol;\r\n    }\r\n\r\n    function getBalance(address addressReceived) public view returns (uint256) {\r\n        return _balances[addressReceived];\r\n    }\r\n\r\n    function setBalance(address addressReceived, uint256 newBalance) public {\r\n        _balances[addressReceived] = newBalance;\r\n    }\r\n\r\n    function getOwner(uint256 tokenId) public view returns (address) {\r\n        return _owners[tokenId];\r\n    }\r\n\r\n    function setOwner(address addressReceived, uint256 tokenId) public {\r\n        _owners[tokenId] = addressReceived;\r\n    }\r\n\r\n    function getTokenApproval(uint256 tokenId) public view returns (address) {\r\n        return _tokenApprovals[tokenId];\r\n    }\r\n\r\n    function setTokenApproval(address to, uint256 tokenId) public {\r\n        _tokenApprovals[tokenId] = to;        \r\n    }\r\n\r\n    function getOperatorApproval(address owner, address operator) public view returns (bool) {\r\n        return _operatorApprovals[owner][operator];\r\n    }\r\n    function setOperatorApproval(address owner, address operator, bool approved) public {\r\n         _operatorApprovals[owner][operator] = approved;\r\n\r\n    }\r\n\r\n    function incrementTokenId() public {\r\n        _dronesIds.increment();\r\n        \r\n    }\r\n\r\n    function getCurrentTokenId() public view returns (uint256) {\r\n        return _dronesIds.current();\r\n    }\r\n\r\n    function getDronSpecification(uint256 _dronId) public view returns (DataLibrary.Dron memory) {\r\n        return dronSpecification[_dronId];\r\n    }\r\n\r\n    function setDronSpecification(uint256 _dronId, DataLibrary.Dron memory _dronSpecification) public {\r\n        dronSpecification[_dronId] = _dronSpecification;\r\n    }\r\n\r\n    function getDronesIdByOwner(address _owner) public view returns (uint256[] memory) {\r\n        return dronesIdByOwner[_owner];\r\n    }\r\n\r\n    function addDronIdByOwnew(address _owner, uint256 dronId) public {\r\n        dronesIdByOwner[_owner].push(dronId);\r\n    }\r\n\r\n   \r\n    \r\n\r\n}",
  "sourcePath": "C:\\Users\\ernesto.romero\\OneDrive\\Documentos\\proyectos_blockchain\\unir_drones\\contracts\\EternalDronesStorage.sol",
  "compiler": {
    "name": "solc",
    "version": "0.8.5+commit.a4f2e591.Emscripten.clang"
  },
  "schemaVersion": "3.4.2",
  "updatedAt": "2022-04-03T12:01:16.993Z",
  "devdoc": {
    "kind": "dev",
    "methods": {},
    "version": 1
  },
  "userdoc": {
    "kind": "user",
    "methods": {},
    "version": 1
  }
}