{
  "contractName": "OperacionesDronesParcelas",
  "abi": [
    {
      "inputs": [
        {
          "internalType": "address",
          "name": "_addressDronesERC721",
          "type": "address"
        },
        {
          "internalType": "address",
          "name": "_addressParcelasERC721",
          "type": "address"
        },
        {
          "internalType": "address",
          "name": "_myTokenERC20",
          "type": "address"
        }
      ],
      "stateMutability": "nonpayable",
      "type": "constructor"
    },
    {
      "anonymous": false,
      "inputs": [
        {
          "indexed": false,
          "internalType": "uint256",
          "name": "_parcelaId",
          "type": "uint256"
        }
      ],
      "name": "Fumigacion",
      "type": "event"
    },
    {
      "inputs": [
        {
          "internalType": "uint256",
          "name": "_dronId",
          "type": "uint256"
        },
        {
          "internalType": "uint256",
          "name": "_parcelaId",
          "type": "uint256"
        }
      ],
      "name": "contratarDron",
      "outputs": [],
      "stateMutability": "payable",
      "type": "function"
    },
    {
      "inputs": [
        {
          "internalType": "uint256",
          "name": "_dronId",
          "type": "uint256"
        }
      ],
      "name": "getPendientesDeFumigar",
      "outputs": [
        {
          "internalType": "uint256",
          "name": "",
          "type": "uint256"
        }
      ],
      "stateMutability": "view",
      "type": "function"
    },
    {
      "inputs": [
        {
          "internalType": "uint256",
          "name": "_dronId",
          "type": "uint256"
        },
        {
          "internalType": "uint256",
          "name": "_parcelaId",
          "type": "uint256"
        }
      ],
      "name": "fumigar",
      "outputs": [],
      "stateMutability": "nonpayable",
      "type": "function"
    },
    {
      "inputs": [
        {
          "internalType": "bytes",
          "name": "data",
          "type": "bytes"
        }
      ],
      "name": "toString",
      "outputs": [
        {
          "internalType": "string",
          "name": "",
          "type": "string"
        }
      ],
      "stateMutability": "pure",
      "type": "function"
    }
  ],
  "bytecode": "0x60806040523480156200001157600080fd5b5060405162001e2238038062001e22833981810160405281019062000037919062000119565b82600160006101000a81548173ffffffffffffffffffffffffffffffffffffffff021916908373ffffffffffffffffffffffffffffffffffffffff16021790555081600260006101000a81548173ffffffffffffffffffffffffffffffffffffffff021916908373ffffffffffffffffffffffffffffffffffffffff160217905550806000806101000a81548173ffffffffffffffffffffffffffffffffffffffff021916908373ffffffffffffffffffffffffffffffffffffffff160217905550505050620001c8565b6000815190506200011381620001ae565b92915050565b600080600060608486031215620001355762000134620001a9565b5b6000620001458682870162000102565b9350506020620001588682870162000102565b92505060406200016b8682870162000102565b9150509250925092565b6000620001828262000189565b9050919050565b600073ffffffffffffffffffffffffffffffffffffffff82169050919050565b600080fd5b620001b98162000175565b8114620001c557600080fd5b50565b611c4a80620001d86000396000f3fe60806040526004361061003f5760003560e01c80633f84e637146100445780635a642c12146100605780636dae5c9b1461008957806371aad10d146100c6575b600080fd5b61005e60048036038101906100599190611365565b610103565b005b34801561006c57600080fd5b5061008760048036038101906100829190611365565b610799565b005b34801561009557600080fd5b506100b060048036038101906100ab919061130b565b610a37565b6040516100bd919061168a565b60405180910390f35b3480156100d257600080fd5b506100ed60048036038101906100e89190611268565b610a54565b6040516100fa91906115e8565b60405180910390f35b6000600360008481526020019081526020016000205414610159576040517f08c379a00000000000000000000000000000000000000000000000000000000081526004016101509061166a565b60405180910390fd5b3373ffffffffffffffffffffffffffffffffffffffff16600260009054906101000a900473ffffffffffffffffffffffffffffffffffffffff1673ffffffffffffffffffffffffffffffffffffffff16636352211e836040518263ffffffff1660e01b81526004016101cb919061168a565b60206040518083038186803b1580156101e357600080fd5b505afa1580156101f7573d6000803e3d6000fd5b505050506040513d601f19601f8201168201806040525081019061021b919061120e565b73ffffffffffffffffffffffffffffffffffffffff161461034e576102e9600260009054906101000a900473ffffffffffffffffffffffffffffffffffffffff1673ffffffffffffffffffffffffffffffffffffffff16636352211e836040518263ffffffff1660e01b8152600401610294919061168a565b60206040518083038186803b1580156102ac57600080fd5b505afa1580156102c0573d6000803e3d6000fd5b505050506040513d601f19601f820116820180604052508101906102e4919061120e565b610d4e565b6102f233610d4e565b604051602001610303929190611522565b6040516020818303038152906040526040517f08c379a000000000000000000000000000000000000000000000000000000000815260040161034591906115e8565b60405180910390fd5b6000600160009054906101000a900473ffffffffffffffffffffffffffffffffffffffff1673ffffffffffffffffffffffffffffffffffffffff16633c0cad35846040518263ffffffff1660e01b81526004016103ab919061168a565b60806040518083038186803b1580156103c357600080fd5b505afa1580156103d7573d6000803e3d6000fd5b505050506040513d601f19601f820116820180604052508101906103fb91906112b1565b90506000600260009054906101000a900473ffffffffffffffffffffffffffffffffffffffff1673ffffffffffffffffffffffffffffffffffffffff16634d1df314846040518263ffffffff1660e01b815260040161045a919061168a565b60606040518083038186803b15801561047257600080fd5b505afa158015610486573d6000803e3d6000fd5b505050506040513d601f19601f820116820180604052508101906104aa91906112de565b9050816040015160008054906101000a900473ffffffffffffffffffffffffffffffffffffffff1673ffffffffffffffffffffffffffffffffffffffff166370a08231336040518263ffffffff1660e01b815260040161050a9190611596565b60206040518083038186803b15801561052257600080fd5b505afa158015610536573d6000803e3d6000fd5b505050506040513d601f19601f8201168201806040525081019061055a9190611338565b101561059b576040517f08c379a00000000000000000000000000000000000000000000000000000000081526004016105929061160a565b60405180910390fd5b8160000151816020015111806105dd5750816060015160048111156105c3576105c2611905565b5b816040015160048111156105da576105d9611905565b5b14155b1561061d576040517f08c379a00000000000000000000000000000000000000000000000000000000081526004016106149061164a565b60405180910390fd5b82600360008681526020019081526020016000208190555060008054906101000a900473ffffffffffffffffffffffffffffffffffffffff1673ffffffffffffffffffffffffffffffffffffffff166323b872dd33600160009054906101000a900473ffffffffffffffffffffffffffffffffffffffff1673ffffffffffffffffffffffffffffffffffffffff16636352211e886040518263ffffffff1660e01b81526004016106cd919061168a565b60206040518083038186803b1580156106e557600080fd5b505afa1580156106f9573d6000803e3d6000fd5b505050506040513d601f19601f8201168201806040525081019061071d919061120e565b85604001516040518463ffffffff1660e01b8152600401610740939291906115b1565b602060405180830381600087803b15801561075a57600080fd5b505af115801561076e573d6000803e3d6000fd5b505050506040513d601f19601f82011682018060405250810190610792919061123b565b5050505050565b3373ffffffffffffffffffffffffffffffffffffffff16600160009054906101000a900473ffffffffffffffffffffffffffffffffffffffff1673ffffffffffffffffffffffffffffffffffffffff16636352211e846040518263ffffffff1660e01b815260040161080b919061168a565b60206040518083038186803b15801561082357600080fd5b505afa158015610837573d6000803e3d6000fd5b505050506040513d601f19601f8201168201806040525081019061085b919061120e565b73ffffffffffffffffffffffffffffffffffffffff161461098e57610929600160009054906101000a900473ffffffffffffffffffffffffffffffffffffffff1673ffffffffffffffffffffffffffffffffffffffff16636352211e846040518263ffffffff1660e01b81526004016108d4919061168a565b60206040518083038186803b1580156108ec57600080fd5b505afa158015610900573d6000803e3d6000fd5b505050506040513d601f19601f82011682018060405250810190610924919061120e565b610d4e565b61093233610d4e565b60405160200161094392919061155c565b6040516020818303038152906040526040517f08c379a000000000000000000000000000000000000000000000000000000000815260040161098591906115e8565b60405180910390fd5b806003600084815260200190815260200160002054146109e3576040517f08c379a00000000000000000000000000000000000000000000000000000000081526004016109da9061162a565b60405180910390fd5b600060036000848152602001908152602001600020819055507ffc7c0dcb7516a7baf16dc7acc0dbc981b117e96b22634288a456f34ce8a7251f81604051610a2b919061168a565b60405180910390a15050565b600060036000838152602001908152602001600020549050919050565b606060006040518060400160405280601081526020017f30313233343536373839616263646566000000000000000000000000000000008152509050600060028451610aa09190611778565b6002610aac9190611722565b67ffffffffffffffff811115610ac557610ac4611963565b5b6040519080825280601f01601f191660200182016040528015610af75781602001600182028036833780820191505090505b5090507f300000000000000000000000000000000000000000000000000000000000000081600081518110610b2f57610b2e611934565b5b60200101907effffffffffffffffffffffffffffffffffffffffffffffffffffffffffffff1916908160001a9053507f780000000000000000000000000000000000000000000000000000000000000081600181518110610b9357610b92611934565b5b60200101907effffffffffffffffffffffffffffffffffffffffffffffffffffffffffffff1916908160001a90535060005b8451811015610d4357826004868381518110610be457610be3611934565b5b602001015160f81c60f81b7effffffffffffffffffffffffffffffffffffffffffffffffffffffffffffff1916901c60f81c60ff1681518110610c2a57610c29611934565b5b602001015160f81c60f81b82600283610c439190611778565b6002610c4f9190611722565b81518110610c6057610c5f611934565b5b60200101907effffffffffffffffffffffffffffffffffffffffffffffffffffffffffffff1916908160001a90535082600f60f81b868381518110610ca857610ca7611934565b5b602001015160f81c60f81b1660f81c60ff1681518110610ccb57610cca611934565b5b602001015160f81c60f81b82600283610ce49190611778565b6003610cf09190611722565b81518110610d0157610d00611934565b5b60200101907effffffffffffffffffffffffffffffffffffffffffffffffffffffffffffff1916908160001a9053508080610d3b9061188d565b915050610bc5565b508092505050919050565b606060008273ffffffffffffffffffffffffffffffffffffffff1660001b905060006040518060400160405280601081526020017f303132333435363738396162636465660000000000000000000000000000000081525090506000602a67ffffffffffffffff811115610dc557610dc4611963565b5b6040519080825280601f01601f191660200182016040528015610df75781602001600182028036833780820191505090505b5090507f300000000000000000000000000000000000000000000000000000000000000081600081518110610e2f57610e2e611934565b5b60200101907effffffffffffffffffffffffffffffffffffffffffffffffffffffffffffff1916908160001a9053507f780000000000000000000000000000000000000000000000000000000000000081600181518110610e9357610e92611934565b5b60200101907effffffffffffffffffffffffffffffffffffffffffffffffffffffffffffff1916908160001a90535060005b601481101561104d5782600485600c84610edf9190611722565b60208110610ef057610eef611934565b5b1a60f81b7effffffffffffffffffffffffffffffffffffffffffffffffffffffffffffff1916901c60f81c60ff1681518110610f2f57610f2e611934565b5b602001015160f81c60f81b82600283610f489190611778565b6002610f549190611722565b81518110610f6557610f64611934565b5b60200101907effffffffffffffffffffffffffffffffffffffffffffffffffffffffffffff1916908160001a90535082600f60f81b85600c84610fa89190611722565b60208110610fb957610fb8611934565b5b1a60f81b1660f81c60ff1681518110610fd557610fd4611934565b5b602001015160f81c60f81b82600283610fee9190611778565b6003610ffa9190611722565b8151811061100b5761100a611934565b5b60200101907effffffffffffffffffffffffffffffffffffffffffffffffffffffffffffff1916908160001a90535080806110459061188d565b915050610ec5565b50809350505050919050565b600061106c611067846116ca565b6116a5565b9050828152602081018484840111156110885761108761199c565b5b61109384828561181a565b509392505050565b6000815190506110aa81611bbf565b92915050565b6000815190506110bf81611bd6565b92915050565b600082601f8301126110da576110d9611992565b5b81356110ea848260208601611059565b91505092915050565b60008151905061110281611bed565b92915050565b60006080828403121561111e5761111d611997565b5b61112860806116a5565b90506000611138848285016111f9565b600083015250602061114c848285016111f9565b6020830152506040611160848285016111f9565b6040830152506060611174848285016110f3565b60608301525092915050565b60006060828403121561119657611195611997565b5b6111a060606116a5565b905060006111b0848285016111f9565b60008301525060206111c4848285016111f9565b60208301525060406111d8848285016110f3565b60408301525092915050565b6000813590506111f381611bfd565b92915050565b60008151905061120881611bfd565b92915050565b600060208284031215611224576112236119a6565b5b60006112328482850161109b565b91505092915050565b600060208284031215611251576112506119a6565b5b600061125f848285016110b0565b91505092915050565b60006020828403121561127e5761127d6119a6565b5b600082013567ffffffffffffffff81111561129c5761129b6119a1565b5b6112a8848285016110c5565b91505092915050565b6000608082840312156112c7576112c66119a6565b5b60006112d584828501611108565b91505092915050565b6000606082840312156112f4576112f36119a6565b5b600061130284828501611180565b91505092915050565b600060208284031215611321576113206119a6565b5b600061132f848285016111e4565b91505092915050565b60006020828403121561134e5761134d6119a6565b5b600061135c848285016111f9565b91505092915050565b6000806040838503121561137c5761137b6119a6565b5b600061138a858286016111e4565b925050602061139b858286016111e4565b9150509250929050565b6113ae816117d2565b82525050565b60006113bf826116fb565b6113c98185611706565b93506113d9818560208601611829565b6113e2816119ab565b840191505092915050565b60006113f8826116fb565b6114028185611717565b9350611412818560208601611829565b80840191505092915050565b600061142b600983611717565b9150611436826119bc565b600982019050919050565b600061144e602783611706565b9150611459826119e5565b604082019050919050565b6000611471602d83611706565b915061147c82611a34565b604082019050919050565b6000611494602483611706565b915061149f82611a83565b604082019050919050565b60006114b7603483611717565b91506114c282611ad2565b603482019050919050565b60006114da603483611717565b91506114e582611b21565b603482019050919050565b60006114fd602283611706565b915061150882611b70565b604082019050919050565b61151c81611810565b82525050565b600061152d826114aa565b915061153982856113ed565b91506115448261141e565b915061155082846113ed565b91508190509392505050565b6000611567826114cd565b915061157382856113ed565b915061157e8261141e565b915061158a82846113ed565b91508190509392505050565b60006020820190506115ab60008301846113a5565b92915050565b60006060820190506115c660008301866113a5565b6115d360208301856113a5565b6115e06040830184611513565b949350505050565b6000602082019050818103600083015261160281846113b4565b905092915050565b6000602082019050818103600083015261162381611441565b9050919050565b6000602082019050818103600083015261164381611464565b9050919050565b6000602082019050818103600083015261166381611487565b9050919050565b60006020820190508181036000830152611683816114f0565b9050919050565b600060208201905061169f6000830184611513565b92915050565b60006116af6116c0565b90506116bb828261185c565b919050565b6000604051905090565b600067ffffffffffffffff8211156116e5576116e4611963565b5b6116ee826119ab565b9050602081019050919050565b600081519050919050565b600082825260208201905092915050565b600081905092915050565b600061172d82611810565b915061173883611810565b9250827fffffffffffffffffffffffffffffffffffffffffffffffffffffffffffffffff0382111561176d5761176c6118d6565b5b828201905092915050565b600061178382611810565b915061178e83611810565b9250817fffffffffffffffffffffffffffffffffffffffffffffffffffffffffffffffff04831182151516156117c7576117c66118d6565b5b828202905092915050565b60006117dd826117f0565b9050919050565b60008115159050919050565b600073ffffffffffffffffffffffffffffffffffffffff82169050919050565b6000819050919050565b82818337600083830152505050565b60005b8381101561184757808201518184015260208101905061182c565b83811115611856576000848401525b50505050565b611865826119ab565b810181811067ffffffffffffffff8211171561188457611883611963565b5b80604052505050565b600061189882611810565b91507fffffffffffffffffffffffffffffffffffffffffffffffffffffffffffffffff8214156118cb576118ca6118d6565b5b600182019050919050565b7f4e487b7100000000000000000000000000000000000000000000000000000000600052601160045260246000fd5b7f4e487b7100000000000000000000000000000000000000000000000000000000600052602160045260246000fd5b7f4e487b7100000000000000000000000000000000000000000000000000000000600052603260045260246000fd5b7f4e487b7100000000000000000000000000000000000000000000000000000000600052604160045260246000fd5b600080fd5b600080fd5b600080fd5b600080fd5b600080fd5b6000601f19601f8301169050919050565b7f2053656e6465723a200000000000000000000000000000000000000000000000600082015250565b7f44726f6e2070726963652069732067726561746572207468616e20746f74616c60008201527f20616d6f756e7400000000000000000000000000000000000000000000000000602082015250565b7f54686520706c6f74206861732061737369676e656420746865206a6f6220746f60008201527f20616e6f746865722064726f6e00000000000000000000000000000000000000602082015250565b7f506c6f74206e6f7420737570706f72742064726f6e207370656369666963617460008201527f696f6e7300000000000000000000000000000000000000000000000000000000602082015250565b7f53656e6465722073686f756c6420626520746865206f776e6572206f6620746860008201527f6520706c6f742e20506c6f74206f776e65723a20000000000000000000000000602082015250565b7f53656e6465722073686f756c6420626520746865206f776e6572206f6620746860008201527f652064726f6e2e2044726f6e206f776e65723a20000000000000000000000000602082015250565b7f5468652064726f6e20697320617369676e656420746f20616e6f74686572206a60008201527f6f62000000000000000000000000000000000000000000000000000000000000602082015250565b611bc8816117d2565b8114611bd357600080fd5b50565b611bdf816117e4565b8114611bea57600080fd5b50565b60058110611bfa57600080fd5b50565b611c0681611810565b8114611c1157600080fd5b5056fea26469706673582212207b9c474b6bb46a20b5c51b0485f55e00c920c49f9b4676789722fa854778c3ce64736f6c63430008050033",
  "immutableReferences": {},
  "source": "// SPDX-License-Identifier: MIT\r\npragma solidity ^0.8.0;\r\n\r\nimport \"./DronesERC721.sol\";\r\nimport \"./ParcelasERC721.sol\";\r\nimport \"./MyTokenERC20.sol\";\r\nimport \"./DataLibrary.sol\";\r\n\r\n\r\n\r\ncontract OperacionesDronesParcelas {\r\n\r\n    MyTokenERC20 myTokenERC20;\r\n    \r\n    DronesERC721 dronesERC721;\r\n\r\n    ParcelasERC721 parcelasERC721;\r\n\r\n    // Mapping to save for each address (owner of dron) what plot jobs has to do a dron. First \r\n    // parameter is an address, second parameter is the plot id and third parameter is dron id\r\n    //mapping(address => mapping(uint256 => uint256)) private jobsPending;\r\n    mapping(uint256 => uint256) private jobsPending;\r\n    \r\n\r\n    constructor(address _addressDronesERC721, address _addressParcelasERC721, address _myTokenERC20) {\r\n\r\n        dronesERC721 = DronesERC721(_addressDronesERC721);\r\n        parcelasERC721 = ParcelasERC721(_addressParcelasERC721);\r\n        myTokenERC20 = MyTokenERC20(_myTokenERC20);\r\n\r\n    }\r\n\r\n\r\n    function contratarDron(uint256 _dronId, uint256 _parcelaId) public payable {\r\n\r\n        if (jobsPending[_dronId] != 0) {\r\n            revert(\"The dron is asigned to another job\");\r\n        } \r\n\r\n        if (parcelasERC721.ownerOf(_parcelaId) != msg.sender) { \r\n            //string memory op = toString(abi.encodePacked(parcelasERC721.ownerOf(_parcelaId)));\r\n            //string memory op2 = toString(abi.encodePacked(msg.sender));\r\n            //string memory op = \"Sender should be the owner of the plot. Plot owner: \" + addressToString(parcelasERC721.ownerOf(_parcelaId)) + \" Sender: \" + addressToString(msg.sender);\r\n            //string memory op2 = addressToString(msg.sender);\r\n            \r\n            revert(  string(    abi.encodePacked(\"Sender should be the owner of the plot. Plot owner: \", addressToString(parcelasERC721.ownerOf(_parcelaId)), \" Sender: \", addressToString(msg.sender)    )                       )                     );\r\n            \r\n            //revert( string(\"Sender should be the owner of the plot. Plot owner: \", bytes(addressToString(parcelasERC721.ownerOf(_parcelaId)), \"Sender: \", bytes(addressToString(msg.sender)))) );\r\n        }         \r\n\r\n        DataLibrary.Dron memory dronSpecs = dronesERC721.getDronSpecification(_dronId);\r\n\r\n        DataLibrary.Parcela memory parcelaSpecs = parcelasERC721.getParcelaSpecification(_parcelaId);\r\n\r\n        if (myTokenERC20.balanceOf(msg.sender) < dronSpecs.coste) {\r\n            revert(\"Dron price is greater than total amount\");\r\n        }\r\n        \r\n        // Si la altura minima de la parcela es mayor que la altura maxima del dron, el dron no puede volar, revertimos la operacion. Lo mismo con \r\n        // el pesticida. Si el pesticida de la parcela no es el mismo que el del dron, revertimos\r\n        if ((parcelaSpecs.alturaMinima > dronSpecs.alturaMaxima) || (parcelaSpecs.pesticidaAceptado != dronSpecs.pesticidaAceptado)) {\r\n            revert(\"Plot not support dron specifications\");\r\n        }\r\n\r\n        jobsPending[_dronId] = _parcelaId;\r\n        \r\n        myTokenERC20.transferFrom(msg.sender, dronesERC721.ownerOf(_dronId), dronSpecs.coste);\r\n    }\r\n\r\n\r\n    function getPendientesDeFumigar(uint256 _dronId) public view returns (uint256) {\r\n\r\n        return jobsPending[_dronId];\r\n\r\n        \r\n    }\r\n    \r\n    function fumigar(uint256 _dronId, uint256 _parcelaId) public {\r\n\r\n        if (dronesERC721.ownerOf(_dronId) != msg.sender) { \r\n            //string memory op = addressToString(dronesERC721.ownerOf(_dronId));\r\n            //string memory op2 = addressToString(msg.sender);\r\n            //revert(\"Sender should be the owner of the dron. Dron owner: \" + op + \" Sender: \" + op2);\r\n\r\n            revert(  string(    abi.encodePacked(\"Sender should be the owner of the dron. Dron owner: \", addressToString(dronesERC721.ownerOf(_dronId)), \" Sender: \", addressToString(msg.sender)    )                       )                     );\r\n            \r\n        }  \r\n       \r\n        if (jobsPending[_dronId] != _parcelaId) {\r\n            revert(\"The plot has assigned the job to another dron\");\r\n        }\r\n\r\n        \r\n\r\n        jobsPending[_dronId] = 0;        \r\n\r\n        emit Fumigacion(_parcelaId);\r\n    }\r\n\r\n\r\n    event Fumigacion(uint256 _parcelaId);\r\n\r\n\r\n\r\n    function toString(bytes memory data) public pure returns(string memory) {\r\n        bytes memory alphabet = \"0123456789abcdef\";\r\n\r\n        bytes memory str = new bytes(2 + data.length * 2);\r\n        str[0] = \"0\";\r\n        str[1] = \"x\";\r\n        for (uint i = 0; i < data.length; i++) {\r\n            str[2+i*2] = alphabet[uint(uint8(data[i] >> 4))];\r\n            str[3+i*2] = alphabet[uint(uint8(data[i] & 0x0f))];\r\n        }\r\n        return string(str);\r\n    }\r\n\r\n    function addressToString(address _address) internal pure returns(string memory) {\r\n        bytes32 _bytes = bytes32(uint256(uint160(_address)));\r\n        bytes memory HEX = \"0123456789abcdef\";\r\n        bytes memory _string = new bytes(42);\r\n        _string[0] = '0';\r\n        _string[1] = 'x';\r\n            for(uint i = 0; i < 20; i++) {\r\n                _string[2+i*2] = HEX[uint8(_bytes[i + 12] >> 4)];\r\n                _string[3+i*2] = HEX[uint8(_bytes[i + 12] & 0x0f)];\r\n            }\r\n        return string(_string);\r\n    }\r\n\r\n}",
  "sourcePath": "C:\\Users\\ernesto.romero\\OneDrive\\Documentos\\proyectos_blockchain\\unir_drones\\contracts\\OperacionesDronesParcelas.sol",
  "compiler": {
    "name": "solc",
    "version": "0.8.5+commit.a4f2e591.Emscripten.clang"
  },
  "schemaVersion": "3.4.2",
  "updatedAt": "2022-04-03T12:01:17.085Z",
  "devdoc": {
    "kind": "dev",
    "methods": {},
    "version": 1
  },
  "userdoc": {
    "kind": "user",
    "methods": {},
    "version": 1
  }
}