{
  "contractName": "ParcelasERC721",
  "abi": [
    {
      "inputs": [
        {
          "internalType": "address",
          "name": "_addressEternalParcelasStorage",
          "type": "address"
        }
      ],
      "stateMutability": "nonpayable",
      "type": "constructor"
    },
    {
      "anonymous": false,
      "inputs": [
        {
          "indexed": true,
          "internalType": "address",
          "name": "owner",
          "type": "address"
        },
        {
          "indexed": true,
          "internalType": "address",
          "name": "approved",
          "type": "address"
        },
        {
          "indexed": true,
          "internalType": "uint256",
          "name": "tokenId",
          "type": "uint256"
        }
      ],
      "name": "Approval",
      "type": "event"
    },
    {
      "anonymous": false,
      "inputs": [
        {
          "indexed": true,
          "internalType": "address",
          "name": "owner",
          "type": "address"
        },
        {
          "indexed": true,
          "internalType": "address",
          "name": "operator",
          "type": "address"
        },
        {
          "indexed": false,
          "internalType": "bool",
          "name": "approved",
          "type": "bool"
        }
      ],
      "name": "ApprovalForAll",
      "type": "event"
    },
    {
      "anonymous": false,
      "inputs": [
        {
          "indexed": true,
          "internalType": "address",
          "name": "previousOwner",
          "type": "address"
        },
        {
          "indexed": true,
          "internalType": "address",
          "name": "newOwner",
          "type": "address"
        }
      ],
      "name": "OwnershipTransferred",
      "type": "event"
    },
    {
      "anonymous": false,
      "inputs": [
        {
          "indexed": true,
          "internalType": "address",
          "name": "from",
          "type": "address"
        },
        {
          "indexed": true,
          "internalType": "address",
          "name": "to",
          "type": "address"
        },
        {
          "indexed": true,
          "internalType": "uint256",
          "name": "tokenId",
          "type": "uint256"
        }
      ],
      "name": "Transfer",
      "type": "event"
    },
    {
      "inputs": [],
      "name": "owner",
      "outputs": [
        {
          "internalType": "address",
          "name": "",
          "type": "address"
        }
      ],
      "stateMutability": "view",
      "type": "function"
    },
    {
      "inputs": [],
      "name": "renounceOwnership",
      "outputs": [],
      "stateMutability": "nonpayable",
      "type": "function"
    },
    {
      "inputs": [
        {
          "internalType": "address",
          "name": "newOwner",
          "type": "address"
        }
      ],
      "name": "transferOwnership",
      "outputs": [],
      "stateMutability": "nonpayable",
      "type": "function"
    },
    {
      "inputs": [
        {
          "internalType": "address",
          "name": "_addressEternalParcelasStorage",
          "type": "address"
        }
      ],
      "name": "initialize",
      "outputs": [],
      "stateMutability": "nonpayable",
      "type": "function"
    },
    {
      "inputs": [
        {
          "internalType": "bytes4",
          "name": "interfaceId",
          "type": "bytes4"
        }
      ],
      "name": "supportsInterface",
      "outputs": [
        {
          "internalType": "bool",
          "name": "",
          "type": "bool"
        }
      ],
      "stateMutability": "view",
      "type": "function"
    },
    {
      "inputs": [
        {
          "internalType": "address",
          "name": "owner",
          "type": "address"
        }
      ],
      "name": "balanceOf",
      "outputs": [
        {
          "internalType": "uint256",
          "name": "",
          "type": "uint256"
        }
      ],
      "stateMutability": "view",
      "type": "function"
    },
    {
      "inputs": [
        {
          "internalType": "uint256",
          "name": "tokenId",
          "type": "uint256"
        }
      ],
      "name": "ownerOf",
      "outputs": [
        {
          "internalType": "address",
          "name": "",
          "type": "address"
        }
      ],
      "stateMutability": "view",
      "type": "function"
    },
    {
      "inputs": [
        {
          "internalType": "address",
          "name": "from",
          "type": "address"
        },
        {
          "internalType": "address",
          "name": "to",
          "type": "address"
        },
        {
          "internalType": "uint256",
          "name": "tokenId",
          "type": "uint256"
        }
      ],
      "name": "transferFrom",
      "outputs": [],
      "stateMutability": "nonpayable",
      "type": "function"
    },
    {
      "inputs": [
        {
          "internalType": "address",
          "name": "to",
          "type": "address"
        },
        {
          "internalType": "uint256",
          "name": "tokenId",
          "type": "uint256"
        }
      ],
      "name": "approve",
      "outputs": [],
      "stateMutability": "nonpayable",
      "type": "function"
    },
    {
      "inputs": [
        {
          "internalType": "uint256",
          "name": "tokenId",
          "type": "uint256"
        }
      ],
      "name": "getApproved",
      "outputs": [
        {
          "internalType": "address",
          "name": "",
          "type": "address"
        }
      ],
      "stateMutability": "view",
      "type": "function"
    },
    {
      "inputs": [
        {
          "internalType": "address",
          "name": "operator",
          "type": "address"
        },
        {
          "internalType": "bool",
          "name": "_approved",
          "type": "bool"
        }
      ],
      "name": "setApprovalForAll",
      "outputs": [],
      "stateMutability": "nonpayable",
      "type": "function"
    },
    {
      "inputs": [
        {
          "internalType": "address",
          "name": "owner",
          "type": "address"
        },
        {
          "internalType": "address",
          "name": "operator",
          "type": "address"
        }
      ],
      "name": "isApprovedForAll",
      "outputs": [
        {
          "internalType": "bool",
          "name": "",
          "type": "bool"
        }
      ],
      "stateMutability": "view",
      "type": "function"
    },
    {
      "inputs": [
        {
          "internalType": "address",
          "name": "from",
          "type": "address"
        },
        {
          "internalType": "address",
          "name": "to",
          "type": "address"
        },
        {
          "internalType": "uint256",
          "name": "tokenId",
          "type": "uint256"
        }
      ],
      "name": "safeTransferFrom",
      "outputs": [],
      "stateMutability": "nonpayable",
      "type": "function"
    },
    {
      "inputs": [
        {
          "internalType": "address",
          "name": "from",
          "type": "address"
        },
        {
          "internalType": "address",
          "name": "to",
          "type": "address"
        },
        {
          "internalType": "uint256",
          "name": "tokenId",
          "type": "uint256"
        },
        {
          "internalType": "bytes",
          "name": "data",
          "type": "bytes"
        }
      ],
      "name": "safeTransferFrom",
      "outputs": [],
      "stateMutability": "nonpayable",
      "type": "function"
    },
    {
      "inputs": [],
      "name": "name",
      "outputs": [
        {
          "internalType": "string",
          "name": "",
          "type": "string"
        }
      ],
      "stateMutability": "view",
      "type": "function"
    },
    {
      "inputs": [],
      "name": "symbol",
      "outputs": [
        {
          "internalType": "string",
          "name": "",
          "type": "string"
        }
      ],
      "stateMutability": "view",
      "type": "function"
    },
    {
      "inputs": [
        {
          "internalType": "uint256",
          "name": "tokenId",
          "type": "uint256"
        }
      ],
      "name": "tokenURI",
      "outputs": [
        {
          "internalType": "string",
          "name": "",
          "type": "string"
        }
      ],
      "stateMutability": "view",
      "type": "function"
    },
    {
      "inputs": [
        {
          "internalType": "uint256",
          "name": "_alturaMaxima",
          "type": "uint256"
        },
        {
          "internalType": "uint256",
          "name": "_alturaMinima",
          "type": "uint256"
        },
        {
          "internalType": "uint256",
          "name": "_pesticidaAceptado",
          "type": "uint256"
        }
      ],
      "name": "mint",
      "outputs": [
        {
          "internalType": "bool",
          "name": "",
          "type": "bool"
        }
      ],
      "stateMutability": "nonpayable",
      "type": "function"
    },
    {
      "inputs": [
        {
          "internalType": "address",
          "name": "_owner",
          "type": "address"
        }
      ],
      "name": "getParcelasIdByOwner",
      "outputs": [
        {
          "internalType": "uint256[]",
          "name": "",
          "type": "uint256[]"
        }
      ],
      "stateMutability": "view",
      "type": "function"
    },
    {
      "inputs": [
        {
          "internalType": "uint256",
          "name": "_parcelaId",
          "type": "uint256"
        }
      ],
      "name": "getParcelaSpecification",
      "outputs": [
        {
          "components": [
            {
              "internalType": "uint256",
              "name": "alturaMaxima",
              "type": "uint256"
            },
            {
              "internalType": "uint256",
              "name": "alturaMinima",
              "type": "uint256"
            },
            {
              "internalType": "enum DataLibrary.Pesticidas",
              "name": "pesticidaAceptado",
              "type": "uint8"
            }
          ],
          "internalType": "struct DataLibrary.Parcela",
          "name": "",
          "type": "tuple"
        }
      ],
      "stateMutability": "view",
      "type": "function"
    }
  ],
  "bytecode": "0x60806040523480156200001157600080fd5b5060405162003d7c38038062003d7c833981810160405281019062000037919062000182565b620000576200004b6200009f60201b60201c565b620000a760201b60201c565b80600160006101000a81548173ffffffffffffffffffffffffffffffffffffffff021916908373ffffffffffffffffffffffffffffffffffffffff1602179055505062000207565b600033905090565b60008060009054906101000a900473ffffffffffffffffffffffffffffffffffffffff169050816000806101000a81548173ffffffffffffffffffffffffffffffffffffffff021916908373ffffffffffffffffffffffffffffffffffffffff1602179055508173ffffffffffffffffffffffffffffffffffffffff168173ffffffffffffffffffffffffffffffffffffffff167f8be0079c531659141344cd1fd0a4f28419497f9722a3daafe3b4186f6b6457e060405160405180910390a35050565b6000815190506200017c81620001ed565b92915050565b6000602082840312156200019b576200019a620001e8565b5b6000620001ab848285016200016b565b91505092915050565b6000620001c182620001c8565b9050919050565b600073ffffffffffffffffffffffffffffffffffffffff82169050919050565b600080fd5b620001f881620001b4565b81146200020457600080fd5b50565b613b6580620002176000396000f3fe608060405234801561001057600080fd5b506004361061012c5760003560e01c8063715018a6116100ad578063b88d4fde11610071578063b88d4fde14610355578063c4d66de814610371578063c87b56dd1461038d578063e985e9c5146103bd578063f2fde38b146103ed5761012c565b8063715018a6146102c35780638da5cb5b146102cd57806395d89b41146102eb578063a22cb46514610309578063a423aa50146103255761012c565b806323b872dd116100f457806323b872dd146101fb57806342842e0e146102175780634d1df314146102335780636352211e1461026357806370a08231146102935761012c565b806301ffc9a71461013157806302acc94b1461016157806306fdde0314610191578063081812fc146101af578063095ea7b3146101df575b600080fd5b61014b60048036038101906101469190612960565b610409565b6040516101589190612fc6565b60405180910390f35b61017b60048036038101906101769190612a8a565b6104eb565b6040516101889190612fc6565b60405180910390f35b610199610633565b6040516101a69190612fe1565b60405180910390f35b6101c960048036038101906101c49190612a30565b6106df565b6040516101d69190612eb4565b60405180910390f35b6101f960048036038101906101f491906128aa565b6107db565b005b61021560048036038101906102109190612794565b6108d1565b005b610231600480360381019061022c9190612794565b610931565b005b61024d60048036038101906102489190612a30565b610951565b60405161025a91906131e3565b60405180910390f35b61027d60048036038101906102789190612a30565b610a53565b60405161028a9190612eb4565b60405180910390f35b6102ad60048036038101906102a891906126fa565b610b7c565b6040516102ba91906131fe565b60405180910390f35b6102cb610c9f565b005b6102d5610d27565b6040516102e29190612eb4565b60405180910390f35b6102f3610d50565b6040516103009190612fe1565b60405180910390f35b610323600480360381019061031e919061286a565b610dfc565b005b61033f600480360381019061033a91906126fa565b610e12565b60405161034c9190612fa4565b60405180910390f35b61036f600480360381019061036a91906127e7565b610ecb565b005b61038b600480360381019061038691906126fa565b610f2d565b005b6103a760048036038101906103a29190612a30565b610fed565b6040516103b49190612fe1565b60405180910390f35b6103d760048036038101906103d29190612754565b611094565b6040516103e49190612fc6565b60405180910390f35b610407600480360381019061040291906126fa565b61114b565b005b60007f80ac58cd000000000000000000000000000000000000000000000000000000007bffffffffffffffffffffffffffffffffffffffffffffffffffffffff1916827bffffffffffffffffffffffffffffffffffffffffffffffffffffffff191614806104d457507f5b5e139f000000000000000000000000000000000000000000000000000000007bffffffffffffffffffffffffffffffffffffffffffffffffffffffff1916827bffffffffffffffffffffffffffffffffffffffffffffffffffffffff1916145b806104e457506104e382611243565b5b9050919050565b6000600160009054906101000a900473ffffffffffffffffffffffffffffffffffffffff1673ffffffffffffffffffffffffffffffffffffffff16634f3130fa6040518163ffffffff1660e01b8152600401600060405180830381600087803b15801561055757600080fd5b505af115801561056b573d6000803e3d6000fd5b505050506000600160009054906101000a900473ffffffffffffffffffffffffffffffffffffffff1673ffffffffffffffffffffffffffffffffffffffff1663561892366040518163ffffffff1660e01b815260040160206040518083038186803b1580156105d957600080fd5b505afa1580156105ed573d6000803e3d6000fd5b505050506040513d601f19601f820116820180604052508101906106119190612a5d565b905061062761061e6112ad565b828787876112b5565b60019150509392505050565b6060600160009054906101000a900473ffffffffffffffffffffffffffffffffffffffff1673ffffffffffffffffffffffffffffffffffffffff166317d7de7c6040518163ffffffff1660e01b815260040160006040518083038186803b15801561069d57600080fd5b505afa1580156106b1573d6000803e3d6000fd5b505050506040513d6000823e3d601f19601f820116820180604052508101906106da91906129ba565b905090565b60006106ea8261172d565b610729576040517f08c379a000000000000000000000000000000000000000000000000000000000815260040161072090613143565b60405180910390fd5b600160009054906101000a900473ffffffffffffffffffffffffffffffffffffffff1673ffffffffffffffffffffffffffffffffffffffff1663fe4dd8d9836040518263ffffffff1660e01b815260040161078491906131fe565b60206040518083038186803b15801561079c57600080fd5b505afa1580156107b0573d6000803e3d6000fd5b505050506040513d601f19601f820116820180604052508101906107d49190612727565b9050919050565b600160009054906101000a900473ffffffffffffffffffffffffffffffffffffffff1673ffffffffffffffffffffffffffffffffffffffff166345a0feb983836040518363ffffffff1660e01b8152600401610838929190612f7b565b600060405180830381600087803b15801561085257600080fd5b505af1158015610866573d6000803e3d6000fd5b50505050808273ffffffffffffffffffffffffffffffffffffffff1661088b83610a53565b73ffffffffffffffffffffffffffffffffffffffff167f8c5be1e5ebec7d5bd14f71427d1e84f3dd0314c0f7b2291e5b200ac8c7c3b92560405160405180910390a45050565b6108e26108dc6112ad565b82611810565b610921576040517f08c379a0000000000000000000000000000000000000000000000000000000008152600401610918906131c3565b60405180910390fd5b61092c8383836118ee565b505050565b61094c83838360405180602001604052806000815250610ecb565b505050565b610959612428565b6109628261172d565b6109a1576040517f08c379a0000000000000000000000000000000000000000000000000000000008152600401610998906131a3565b60405180910390fd5b600160009054906101000a900473ffffffffffffffffffffffffffffffffffffffff1673ffffffffffffffffffffffffffffffffffffffff16634d1df314836040518263ffffffff1660e01b81526004016109fc91906131fe565b60606040518083038186803b158015610a1457600080fd5b505afa158015610a28573d6000803e3d6000fd5b505050506040513d601f19601f82011682018060405250810190610a4c9190612a03565b9050919050565b600080600160009054906101000a900473ffffffffffffffffffffffffffffffffffffffff1673ffffffffffffffffffffffffffffffffffffffff1663c41a360a846040518263ffffffff1660e01b8152600401610ab191906131fe565b60206040518083038186803b158015610ac957600080fd5b505afa158015610add573d6000803e3d6000fd5b505050506040513d601f19601f82011682018060405250810190610b019190612727565b9050600073ffffffffffffffffffffffffffffffffffffffff168173ffffffffffffffffffffffffffffffffffffffff161415610b73576040517f08c379a0000000000000000000000000000000000000000000000000000000008152600401610b6a90613103565b60405180910390fd5b80915050919050565b60008073ffffffffffffffffffffffffffffffffffffffff168273ffffffffffffffffffffffffffffffffffffffff161415610bed576040517f08c379a0000000000000000000000000000000000000000000000000000000008152600401610be4906130e3565b60405180910390fd5b600160009054906101000a900473ffffffffffffffffffffffffffffffffffffffff1673ffffffffffffffffffffffffffffffffffffffff1663f8b2cb4f836040518263ffffffff1660e01b8152600401610c489190612eb4565b60206040518083038186803b158015610c6057600080fd5b505afa158015610c74573d6000803e3d6000fd5b505050506040513d601f19601f82011682018060405250810190610c989190612a5d565b9050919050565b610ca76112ad565b73ffffffffffffffffffffffffffffffffffffffff16610cc5610d27565b73ffffffffffffffffffffffffffffffffffffffff1614610d1b576040517f08c379a0000000000000000000000000000000000000000000000000000000008152600401610d1290613163565b60405180910390fd5b610d256000611d6c565b565b60008060009054906101000a900473ffffffffffffffffffffffffffffffffffffffff16905090565b6060600160009054906101000a900473ffffffffffffffffffffffffffffffffffffffff1673ffffffffffffffffffffffffffffffffffffffff1663150704016040518163ffffffff1660e01b815260040160006040518083038186803b158015610dba57600080fd5b505afa158015610dce573d6000803e3d6000fd5b505050506040513d6000823e3d601f19601f82011682018060405250810190610df791906129ba565b905090565b610e0e610e076112ad565b8383611e30565b5050565b6060600160009054906101000a900473ffffffffffffffffffffffffffffffffffffffff1673ffffffffffffffffffffffffffffffffffffffff1663a423aa50836040518263ffffffff1660e01b8152600401610e6f9190612eb4565b60006040518083038186803b158015610e8757600080fd5b505afa158015610e9b573d6000803e3d6000fd5b505050506040513d6000823e3d601f19601f82011682018060405250810190610ec491906128ea565b9050919050565b610edc610ed66112ad565b83611810565b610f1b576040517f08c379a0000000000000000000000000000000000000000000000000000000008152600401610f12906131c3565b60405180910390fd5b610f2784848484611f9a565b50505050565b610f356112ad565b73ffffffffffffffffffffffffffffffffffffffff16610f53610d27565b73ffffffffffffffffffffffffffffffffffffffff1614610fa9576040517f08c379a0000000000000000000000000000000000000000000000000000000008152600401610fa090613163565b60405180910390fd5b80600160006101000a81548173ffffffffffffffffffffffffffffffffffffffff021916908373ffffffffffffffffffffffffffffffffffffffff16021790555050565b6060610ff88261172d565b611037576040517f08c379a000000000000000000000000000000000000000000000000000000000815260040161102e90613183565b60405180910390fd5b6000611041611ff6565b90506000815111611061576040518060200160405280600081525061108c565b8061106b8461200d565b60405160200161107c929190612e90565b6040516020818303038152906040525b915050919050565b6000600160009054906101000a900473ffffffffffffffffffffffffffffffffffffffff1673ffffffffffffffffffffffffffffffffffffffff16630514b26c84846040518363ffffffff1660e01b81526004016110f3929190612ecf565b60206040518083038186803b15801561110b57600080fd5b505afa15801561111f573d6000803e3d6000fd5b505050506040513d601f19601f820116820180604052508101906111439190612933565b905092915050565b6111536112ad565b73ffffffffffffffffffffffffffffffffffffffff16611171610d27565b73ffffffffffffffffffffffffffffffffffffffff16146111c7576040517f08c379a00000000000000000000000000000000000000000000000000000000081526004016111be90613163565b60405180910390fd5b600073ffffffffffffffffffffffffffffffffffffffff168173ffffffffffffffffffffffffffffffffffffffff161415611237576040517f08c379a000000000000000000000000000000000000000000000000000000000815260040161122e90613023565b60405180910390fd5b61124081611d6c565b50565b60007f01ffc9a7000000000000000000000000000000000000000000000000000000007bffffffffffffffffffffffffffffffffffffffffffffffffffffffff1916827bffffffffffffffffffffffffffffffffffffffffffffffffffffffff1916149050919050565b600033905090565b600073ffffffffffffffffffffffffffffffffffffffff168573ffffffffffffffffffffffffffffffffffffffff161415611325576040517f08c379a000000000000000000000000000000000000000000000000000000000815260040161131c90613123565b60405180910390fd5b61132e8461172d565b1561136e576040517f08c379a000000000000000000000000000000000000000000000000000000000815260040161136590613063565b60405180910390fd5b61137a6000868661216e565b600160009054906101000a900473ffffffffffffffffffffffffffffffffffffffff1673ffffffffffffffffffffffffffffffffffffffff1663e30443bc8660018060009054906101000a900473ffffffffffffffffffffffffffffffffffffffff1673ffffffffffffffffffffffffffffffffffffffff1663f8b2cb4f8a6040518263ffffffff1660e01b81526004016114159190612eb4565b60206040518083038186803b15801561142d57600080fd5b505afa158015611441573d6000803e3d6000fd5b505050506040513d601f19601f820116820180604052508101906114659190612a5d565b61146f9190613371565b6040518363ffffffff1660e01b815260040161148c929190612f7b565b600060405180830381600087803b1580156114a657600080fd5b505af11580156114ba573d6000803e3d6000fd5b50505050600160009054906101000a900473ffffffffffffffffffffffffffffffffffffffff1673ffffffffffffffffffffffffffffffffffffffff1663ab3b87fe86866040518363ffffffff1660e01b815260040161151b929190612f7b565b600060405180830381600087803b15801561153557600080fd5b505af1158015611549573d6000803e3d6000fd5b50505050611555612428565b838160000181815250508281602001818152505081600481111561157c5761157b613610565b5b8160400190600481111561159357611592613610565b5b908160048111156115a7576115a6613610565b5b81525050600160009054906101000a900473ffffffffffffffffffffffffffffffffffffffff1673ffffffffffffffffffffffffffffffffffffffff1663e4c14a8886836040518363ffffffff1660e01b8152600401611608929190613219565b600060405180830381600087803b15801561162257600080fd5b505af1158015611636573d6000803e3d6000fd5b50505050600160009054906101000a900473ffffffffffffffffffffffffffffffffffffffff1673ffffffffffffffffffffffffffffffffffffffff166320e287ed87876040518363ffffffff1660e01b8152600401611697929190612f7b565b600060405180830381600087803b1580156116b157600080fd5b505af11580156116c5573d6000803e3d6000fd5b50505050848673ffffffffffffffffffffffffffffffffffffffff16600073ffffffffffffffffffffffffffffffffffffffff167fddf252ad1be2c89b69c2b068fc378daa952ba7f163c4a11628f55a4df523b3ef60405160405180910390a4505050505050565b60008073ffffffffffffffffffffffffffffffffffffffff16600160009054906101000a900473ffffffffffffffffffffffffffffffffffffffff1673ffffffffffffffffffffffffffffffffffffffff1663c41a360a846040518263ffffffff1660e01b81526004016117a191906131fe565b60206040518083038186803b1580156117b957600080fd5b505afa1580156117cd573d6000803e3d6000fd5b505050506040513d601f19601f820116820180604052508101906117f19190612727565b73ffffffffffffffffffffffffffffffffffffffff1614159050919050565b600061181b8261172d565b61185a576040517f08c379a0000000000000000000000000000000000000000000000000000000008152600401611851906130c3565b60405180910390fd5b600061186583610a53565b90508073ffffffffffffffffffffffffffffffffffffffff168473ffffffffffffffffffffffffffffffffffffffff1614806118d457508373ffffffffffffffffffffffffffffffffffffffff166118bc846106df565b73ffffffffffffffffffffffffffffffffffffffff16145b806118e557506118e48185611094565b5b91505092915050565b8273ffffffffffffffffffffffffffffffffffffffff1661190e82610a53565b73ffffffffffffffffffffffffffffffffffffffff1614611964576040517f08c379a000000000000000000000000000000000000000000000000000000000815260040161195b90613043565b60405180910390fd5b600073ffffffffffffffffffffffffffffffffffffffff168273ffffffffffffffffffffffffffffffffffffffff1614156119d4576040517f08c379a00000000000000000000000000000000000000000000000000000000081526004016119cb90613083565b60405180910390fd5b6119df83838361216e565b6119ea600082612173565b600160009054906101000a900473ffffffffffffffffffffffffffffffffffffffff1673ffffffffffffffffffffffffffffffffffffffff1663e30443bc8460018060009054906101000a900473ffffffffffffffffffffffffffffffffffffffff1673ffffffffffffffffffffffffffffffffffffffff1663f8b2cb4f886040518263ffffffff1660e01b8152600401611a859190612eb4565b60206040518083038186803b158015611a9d57600080fd5b505afa158015611ab1573d6000803e3d6000fd5b505050506040513d601f19601f82011682018060405250810190611ad59190612a5d565b611adf91906133f8565b6040518363ffffffff1660e01b8152600401611afc929190612f7b565b600060405180830381600087803b158015611b1657600080fd5b505af1158015611b2a573d6000803e3d6000fd5b50505050600160009054906101000a900473ffffffffffffffffffffffffffffffffffffffff1673ffffffffffffffffffffffffffffffffffffffff1663e30443bc8360018060009054906101000a900473ffffffffffffffffffffffffffffffffffffffff1673ffffffffffffffffffffffffffffffffffffffff1663f8b2cb4f876040518263ffffffff1660e01b8152600401611bc99190612eb4565b60206040518083038186803b158015611be157600080fd5b505afa158015611bf5573d6000803e3d6000fd5b505050506040513d601f19601f82011682018060405250810190611c199190612a5d565b611c239190613371565b6040518363ffffffff1660e01b8152600401611c40929190612f7b565b600060405180830381600087803b158015611c5a57600080fd5b505af1158015611c6e573d6000803e3d6000fd5b50505050600160009054906101000a900473ffffffffffffffffffffffffffffffffffffffff1673ffffffffffffffffffffffffffffffffffffffff1663ab3b87fe83836040518363ffffffff1660e01b8152600401611ccf929190612f7b565b600060405180830381600087803b158015611ce957600080fd5b505af1158015611cfd573d6000803e3d6000fd5b50505050808273ffffffffffffffffffffffffffffffffffffffff168473ffffffffffffffffffffffffffffffffffffffff167fddf252ad1be2c89b69c2b068fc378daa952ba7f163c4a11628f55a4df523b3ef60405160405180910390a4611d67838383612269565b505050565b60008060009054906101000a900473ffffffffffffffffffffffffffffffffffffffff169050816000806101000a81548173ffffffffffffffffffffffffffffffffffffffff021916908373ffffffffffffffffffffffffffffffffffffffff1602179055508173ffffffffffffffffffffffffffffffffffffffff168173ffffffffffffffffffffffffffffffffffffffff167f8be0079c531659141344cd1fd0a4f28419497f9722a3daafe3b4186f6b6457e060405160405180910390a35050565b8173ffffffffffffffffffffffffffffffffffffffff168373ffffffffffffffffffffffffffffffffffffffff161415611e9f576040517f08c379a0000000000000000000000000000000000000000000000000000000008152600401611e96906130a3565b60405180910390fd5b600160009054906101000a900473ffffffffffffffffffffffffffffffffffffffff1673ffffffffffffffffffffffffffffffffffffffff1663e93fe2908484846040518463ffffffff1660e01b8152600401611efe93929190612ef8565b600060405180830381600087803b158015611f1857600080fd5b505af1158015611f2c573d6000803e3d6000fd5b505050508173ffffffffffffffffffffffffffffffffffffffff168373ffffffffffffffffffffffffffffffffffffffff167f17307eab39ab6107e8899845ad3d59bd9653f200f220920489ca2b5937696c3183604051611f8d9190612fc6565b60405180910390a3505050565b611fa58484846118ee565b611fb18484848461226e565b611ff0576040517f08c379a0000000000000000000000000000000000000000000000000000000008152600401611fe790613003565b60405180910390fd5b50505050565b606060405180602001604052806000815250905090565b60606000821415612055576040518060400160405280600181526020017f30000000000000000000000000000000000000000000000000000000000000008152509050612169565b600082905060005b6000821461208757808061207090613538565b915050600a8261208091906133c7565b915061205d565b60008167ffffffffffffffff8111156120a3576120a261366e565b5b6040519080825280601f01601f1916602001820160405280156120d55781602001600182028036833780820191505090505b5090505b60008514612162576001826120ee91906133f8565b9150600a856120fd9190613581565b60306121099190613371565b60f81b81838151811061211f5761211e61363f565b5b60200101907effffffffffffffffffffffffffffffffffffffffffffffffffffffffffffff1916908160001a905350600a8561215b91906133c7565b94506120d9565b8093505050505b919050565b505050565b600160009054906101000a900473ffffffffffffffffffffffffffffffffffffffff1673ffffffffffffffffffffffffffffffffffffffff166345a0feb983836040518363ffffffff1660e01b81526004016121d0929190612f7b565b600060405180830381600087803b1580156121ea57600080fd5b505af11580156121fe573d6000803e3d6000fd5b50505050808273ffffffffffffffffffffffffffffffffffffffff1661222383610a53565b73ffffffffffffffffffffffffffffffffffffffff167f8c5be1e5ebec7d5bd14f71427d1e84f3dd0314c0f7b2291e5b200ac8c7c3b92560405160405180910390a45050565b505050565b600061228f8473ffffffffffffffffffffffffffffffffffffffff16612405565b156123f8578373ffffffffffffffffffffffffffffffffffffffff1663150b7a026122b86112ad565b8786866040518563ffffffff1660e01b81526004016122da9493929190612f2f565b602060405180830381600087803b1580156122f457600080fd5b505af192505050801561232557506040513d601f19601f82011682018060405250810190612322919061298d565b60015b6123a8573d8060008114612355576040519150601f19603f3d011682016040523d82523d6000602084013e61235a565b606091505b506000815114156123a0576040517f08c379a000000000000000000000000000000000000000000000000000000000815260040161239790613003565b60405180910390fd5b805181602001fd5b63150b7a0260e01b7bffffffffffffffffffffffffffffffffffffffffffffffffffffffff1916817bffffffffffffffffffffffffffffffffffffffffffffffffffffffff1916149150506123fd565b600190505b949350505050565b6000808273ffffffffffffffffffffffffffffffffffffffff163b119050919050565b604051806060016040528060008152602001600081526020016000600481111561245557612454613610565b5b81525090565b600061246e61246984613267565b613242565b90508083825260208201905082856020860282011115612491576124906136a7565b5b60005b858110156124c157816124a788826126e5565b845260208401935060208301925050600181019050612494565b5050509392505050565b60006124de6124d984613293565b613242565b9050828152602081018484840111156124fa576124f96136ac565b5b6125058482856134c5565b509392505050565b600061252061251b846132c4565b613242565b90508281526020810184848401111561253c5761253b6136ac565b5b6125478482856134d4565b509392505050565b60008135905061255e81613ac3565b92915050565b60008151905061257381613ac3565b92915050565b600082601f83011261258e5761258d61369d565b5b815161259e84826020860161245b565b91505092915050565b6000813590506125b681613ada565b92915050565b6000815190506125cb81613ada565b92915050565b6000813590506125e081613af1565b92915050565b6000815190506125f581613af1565b92915050565b600082601f8301126126105761260f61369d565b5b81356126208482602086016124cb565b91505092915050565b60008151905061263881613b08565b92915050565b600082601f8301126126535761265261369d565b5b815161266384826020860161250d565b91505092915050565b600060608284031215612682576126816136a2565b5b61268c6060613242565b9050600061269c848285016126e5565b60008301525060206126b0848285016126e5565b60208301525060406126c484828501612629565b60408301525092915050565b6000813590506126df81613b18565b92915050565b6000815190506126f481613b18565b92915050565b6000602082840312156127105761270f6136b6565b5b600061271e8482850161254f565b91505092915050565b60006020828403121561273d5761273c6136b6565b5b600061274b84828501612564565b91505092915050565b6000806040838503121561276b5761276a6136b6565b5b60006127798582860161254f565b925050602061278a8582860161254f565b9150509250929050565b6000806000606084860312156127ad576127ac6136b6565b5b60006127bb8682870161254f565b93505060206127cc8682870161254f565b92505060406127dd868287016126d0565b9150509250925092565b60008060008060808587031215612801576128006136b6565b5b600061280f8782880161254f565b94505060206128208782880161254f565b9350506040612831878288016126d0565b925050606085013567ffffffffffffffff811115612852576128516136b1565b5b61285e878288016125fb565b91505092959194509250565b60008060408385031215612881576128806136b6565b5b600061288f8582860161254f565b92505060206128a0858286016125a7565b9150509250929050565b600080604083850312156128c1576128c06136b6565b5b60006128cf8582860161254f565b92505060206128e0858286016126d0565b9150509250929050565b600060208284031215612900576128ff6136b6565b5b600082015167ffffffffffffffff81111561291e5761291d6136b1565b5b61292a84828501612579565b91505092915050565b600060208284031215612949576129486136b6565b5b6000612957848285016125bc565b91505092915050565b600060208284031215612976576129756136b6565b5b6000612984848285016125d1565b91505092915050565b6000602082840312156129a3576129a26136b6565b5b60006129b1848285016125e6565b91505092915050565b6000602082840312156129d0576129cf6136b6565b5b600082015167ffffffffffffffff8111156129ee576129ed6136b1565b5b6129fa8482850161263e565b91505092915050565b600060608284031215612a1957612a186136b6565b5b6000612a278482850161266c565b91505092915050565b600060208284031215612a4657612a456136b6565b5b6000612a54848285016126d0565b91505092915050565b600060208284031215612a7357612a726136b6565b5b6000612a81848285016126e5565b91505092915050565b600080600060608486031215612aa357612aa26136b6565b5b6000612ab1868287016126d0565b9350506020612ac2868287016126d0565b9250506040612ad3868287016126d0565b9150509250925092565b6000612ae98383612e72565b60208301905092915050565b612afe8161342c565b82525050565b6000612b0f82613305565b612b198185613333565b9350612b24836132f5565b8060005b83811015612b55578151612b3c8882612add565b9750612b4783613326565b925050600181019050612b28565b5085935050505092915050565b612b6b8161343e565b82525050565b6000612b7c82613310565b612b868185613344565b9350612b968185602086016134d4565b612b9f816136bb565b840191505092915050565b612bb3816134b3565b82525050565b6000612bc48261331b565b612bce8185613355565b9350612bde8185602086016134d4565b612be7816136bb565b840191505092915050565b6000612bfd8261331b565b612c078185613366565b9350612c178185602086016134d4565b80840191505092915050565b6000612c30603283613355565b9150612c3b826136cc565b604082019050919050565b6000612c53602683613355565b9150612c5e8261371b565b604082019050919050565b6000612c76602583613355565b9150612c818261376a565b604082019050919050565b6000612c99601c83613355565b9150612ca4826137b9565b602082019050919050565b6000612cbc602483613355565b9150612cc7826137e2565b604082019050919050565b6000612cdf601983613355565b9150612cea82613831565b602082019050919050565b6000612d02602c83613355565b9150612d0d8261385a565b604082019050919050565b6000612d25602a83613355565b9150612d30826138a9565b604082019050919050565b6000612d48602983613355565b9150612d53826138f8565b604082019050919050565b6000612d6b602083613355565b9150612d7682613947565b602082019050919050565b6000612d8e602c83613355565b9150612d9982613970565b604082019050919050565b6000612db1602083613355565b9150612dbc826139bf565b602082019050919050565b6000612dd4602f83613355565b9150612ddf826139e8565b604082019050919050565b6000612df7601a83613355565b9150612e0282613a37565b602082019050919050565b6000612e1a603183613355565b9150612e2582613a60565b604082019050919050565b606082016000820151612e466000850182612e72565b506020820151612e596020850182612e72565b506040820151612e6c6040850182612baa565b50505050565b612e7b816134a9565b82525050565b612e8a816134a9565b82525050565b6000612e9c8285612bf2565b9150612ea88284612bf2565b91508190509392505050565b6000602082019050612ec96000830184612af5565b92915050565b6000604082019050612ee46000830185612af5565b612ef16020830184612af5565b9392505050565b6000606082019050612f0d6000830186612af5565b612f1a6020830185612af5565b612f276040830184612b62565b949350505050565b6000608082019050612f446000830187612af5565b612f516020830186612af5565b612f5e6040830185612e81565b8181036060830152612f708184612b71565b905095945050505050565b6000604082019050612f906000830185612af5565b612f9d6020830184612e81565b9392505050565b60006020820190508181036000830152612fbe8184612b04565b905092915050565b6000602082019050612fdb6000830184612b62565b92915050565b60006020820190508181036000830152612ffb8184612bb9565b905092915050565b6000602082019050818103600083015261301c81612c23565b9050919050565b6000602082019050818103600083015261303c81612c46565b9050919050565b6000602082019050818103600083015261305c81612c69565b9050919050565b6000602082019050818103600083015261307c81612c8c565b9050919050565b6000602082019050818103600083015261309c81612caf565b9050919050565b600060208201905081810360008301526130bc81612cd2565b9050919050565b600060208201905081810360008301526130dc81612cf5565b9050919050565b600060208201905081810360008301526130fc81612d18565b9050919050565b6000602082019050818103600083015261311c81612d3b565b9050919050565b6000602082019050818103600083015261313c81612d5e565b9050919050565b6000602082019050818103600083015261315c81612d81565b9050919050565b6000602082019050818103600083015261317c81612da4565b9050919050565b6000602082019050818103600083015261319c81612dc7565b9050919050565b600060208201905081810360008301526131bc81612dea565b9050919050565b600060208201905081810360008301526131dc81612e0d565b9050919050565b60006060820190506131f86000830184612e30565b92915050565b60006020820190506132136000830184612e81565b92915050565b600060808201905061322e6000830185612e81565b61323b6020830184612e30565b9392505050565b600061324c61325d565b90506132588282613507565b919050565b6000604051905090565b600067ffffffffffffffff8211156132825761328161366e565b5b602082029050602081019050919050565b600067ffffffffffffffff8211156132ae576132ad61366e565b5b6132b7826136bb565b9050602081019050919050565b600067ffffffffffffffff8211156132df576132de61366e565b5b6132e8826136bb565b9050602081019050919050565b6000819050602082019050919050565b600081519050919050565b600081519050919050565b600081519050919050565b6000602082019050919050565b600082825260208201905092915050565b600082825260208201905092915050565b600082825260208201905092915050565b600081905092915050565b600061337c826134a9565b9150613387836134a9565b9250827fffffffffffffffffffffffffffffffffffffffffffffffffffffffffffffffff038211156133bc576133bb6135b2565b5b828201905092915050565b60006133d2826134a9565b91506133dd836134a9565b9250826133ed576133ec6135e1565b5b828204905092915050565b6000613403826134a9565b915061340e836134a9565b925082821015613421576134206135b2565b5b828203905092915050565b600061343782613489565b9050919050565b60008115159050919050565b60007fffffffff0000000000000000000000000000000000000000000000000000000082169050919050565b600081905061348482613aaf565b919050565b600073ffffffffffffffffffffffffffffffffffffffff82169050919050565b6000819050919050565b60006134be82613476565b9050919050565b82818337600083830152505050565b60005b838110156134f25780820151818401526020810190506134d7565b83811115613501576000848401525b50505050565b613510826136bb565b810181811067ffffffffffffffff8211171561352f5761352e61366e565b5b80604052505050565b6000613543826134a9565b91507fffffffffffffffffffffffffffffffffffffffffffffffffffffffffffffffff821415613576576135756135b2565b5b600182019050919050565b600061358c826134a9565b9150613597836134a9565b9250826135a7576135a66135e1565b5b828206905092915050565b7f4e487b7100000000000000000000000000000000000000000000000000000000600052601160045260246000fd5b7f4e487b7100000000000000000000000000000000000000000000000000000000600052601260045260246000fd5b7f4e487b7100000000000000000000000000000000000000000000000000000000600052602160045260246000fd5b7f4e487b7100000000000000000000000000000000000000000000000000000000600052603260045260246000fd5b7f4e487b7100000000000000000000000000000000000000000000000000000000600052604160045260246000fd5b600080fd5b600080fd5b600080fd5b600080fd5b600080fd5b600080fd5b6000601f19601f8301169050919050565b7f4552433732313a207472616e7366657220746f206e6f6e20455243373231526560008201527f63656976657220696d706c656d656e7465720000000000000000000000000000602082015250565b7f4f776e61626c653a206e6577206f776e657220697320746865207a65726f206160008201527f6464726573730000000000000000000000000000000000000000000000000000602082015250565b7f4552433732313a207472616e736665722066726f6d20696e636f72726563742060008201527f6f776e6572000000000000000000000000000000000000000000000000000000602082015250565b7f4552433732313a20746f6b656e20616c7265616479206d696e74656400000000600082015250565b7f4552433732313a207472616e7366657220746f20746865207a65726f2061646460008201527f7265737300000000000000000000000000000000000000000000000000000000602082015250565b7f4552433732313a20617070726f766520746f2063616c6c657200000000000000600082015250565b7f4552433732313a206f70657261746f7220717565727920666f72206e6f6e657860008201527f697374656e7420746f6b656e0000000000000000000000000000000000000000602082015250565b7f4552433732313a2062616c616e636520717565727920666f7220746865207a6560008201527f726f206164647265737300000000000000000000000000000000000000000000602082015250565b7f4552433732313a206f776e657220717565727920666f72206e6f6e657869737460008201527f656e7420746f6b656e0000000000000000000000000000000000000000000000602082015250565b7f4552433732313a206d696e7420746f20746865207a65726f2061646472657373600082015250565b7f4552433732313a20617070726f76656420717565727920666f72206e6f6e657860008201527f697374656e7420746f6b656e0000000000000000000000000000000000000000602082015250565b7f4f776e61626c653a2063616c6c6572206973206e6f7420746865206f776e6572600082015250565b7f4552433732314d657461646174613a2055524920717565727920666f72206e6f60008201527f6e6578697374656e7420746f6b656e0000000000000000000000000000000000602082015250565b7f4552433732313a20746f6b656e20646f65736e74206578697374000000000000600082015250565b7f4552433732313a207472616e736665722063616c6c6572206973206e6f74206f60008201527f776e6572206e6f7220617070726f766564000000000000000000000000000000602082015250565b60058110613ac057613abf613610565b5b50565b613acc8161342c565b8114613ad757600080fd5b50565b613ae38161343e565b8114613aee57600080fd5b50565b613afa8161344a565b8114613b0557600080fd5b50565b60058110613b1557600080fd5b50565b613b21816134a9565b8114613b2c57600080fd5b5056fea26469706673582212200433594f650a6c588ad7ec9341904cae4704f795761ef369e7bfd673a962b97164736f6c63430008050033",
  "immutableReferences": {},
  "source": "// SPDX-License-Identifier: MIT\r\npragma solidity ^0.8.0;\r\nimport \"@openzeppelin/contracts/utils/introspection/ERC165.sol\";\r\nimport \"@openzeppelin/contracts/utils/Context.sol\";\r\nimport \"@openzeppelin/contracts/token/ERC721/IERC721.sol\";\r\nimport \"@openzeppelin/contracts/token/ERC721/extensions/IERC721Metadata.sol\";\r\nimport \"@openzeppelin/contracts/token/ERC721/IERC721Receiver.sol\";\r\nimport \"@openzeppelin/contracts/access/Ownable.sol\";\r\nimport \"@openzeppelin/contracts/utils/Address.sol\";\r\nimport \"@openzeppelin/contracts/utils/Strings.sol\";\r\nimport \"./EternalParcelasStorage.sol\";\r\n\r\n\r\n\r\ncontract ParcelasERC721  is Context, IERC721, IERC721Metadata, ERC165, Ownable {\r\n\r\n    using Address for address;\r\n    using Strings for uint256;\r\n\r\n    EternalParcelasStorage eternalParcelasStorage;\r\n\r\n    constructor(address _addressEternalParcelasStorage) {\r\n        eternalParcelasStorage = EternalParcelasStorage(_addressEternalParcelasStorage);\r\n    }\r\n\r\n    function initialize(address _addressEternalParcelasStorage) public onlyOwner {\r\n        eternalParcelasStorage = EternalParcelasStorage(_addressEternalParcelasStorage);\r\n    }\r\n\r\n\r\n    // Funcion para ERC165\r\n    /**\r\n     * @dev See {IERC165-supportsInterface}.\r\n     */\r\n    function supportsInterface(bytes4 interfaceId) public view override(ERC165, IERC165) returns (bool) {\r\n        return\r\n            interfaceId == type(IERC721).interfaceId ||\r\n            interfaceId == type(IERC721Metadata).interfaceId ||\r\n            super.supportsInterface(interfaceId);\r\n    }\r\n\r\n\r\n    /** \r\n        FUNCIONES SOBREESCRITAS PARA CUMPLIR CON LA INTERFACE IERC721\r\n    **/\r\n\r\n\r\n    /**\r\n     * @dev Returns the number of tokens in ``owner``'s account.\r\n     */\r\n    function balanceOf(address owner) override public view returns (uint256) {\r\n\r\n        require(owner != address(0), \"ERC721: balance query for the zero address\");\r\n        return eternalParcelasStorage.getBalance(owner);\r\n    }\r\n\r\n    /**\r\n     * @dev Returns the owner of the `tokenId` token.\r\n     *\r\n     * Requirements:\r\n     *\r\n     * - `tokenId` must exist.\r\n     */\r\n    function ownerOf(uint256 tokenId) override public view returns (address) {\r\n        \r\n        address owner = eternalParcelasStorage.getOwner(tokenId);\r\n        require(owner != address(0), \"ERC721: owner query for nonexistent token\");\r\n        return owner;\r\n    }\r\n\r\n    /**\r\n     * @dev Safely transfers `tokenId` token from `from` to `to`, checking first that contract recipients\r\n     * are aware of the ERC721 protocol to prevent tokens from being forever locked.\r\n     *\r\n     * Requirements:\r\n     *\r\n     * - `from` cannot be the zero address.\r\n     * - `to` cannot be the zero address.\r\n     * - `tokenId` token must exist and be owned by `from`.\r\n     * - If the caller is not `from`, it must be have been allowed to move this token by either {approve} or {setApprovalForAll}.\r\n     * - If `to` refers to a smart contract, it must implement {IERC721Receiver-onERC721Received}, which is called upon a safe transfer.\r\n     *\r\n     * Emits a {Transfer} event.\r\n     */\r\n    function safeTransferFrom(address from, address to, uint256 tokenId) override external {\r\n\r\n        safeTransferFrom(from, to, tokenId, bytes (\"\"));\r\n    }\r\n\r\n    /**\r\n     * @dev Transfers `tokenId` token from `from` to `to`.\r\n     *\r\n     * WARNING: Usage of this method is discouraged, use {safeTransferFrom} whenever possible.\r\n     *\r\n     * Requirements:\r\n     *\r\n     * - `from` cannot be the zero address.\r\n     * - `to` cannot be the zero address.\r\n     * - `tokenId` token must be owned by `from`.\r\n     * - If the caller is not `from`, it must be approved to move this token by either {approve} or {setApprovalForAll}.\r\n     *\r\n     * Emits a {Transfer} event.\r\n     */\r\n    function transferFrom(address from, address to, uint256 tokenId) override external {\r\n\r\n        require(_isApprovedOrOwner(_msgSender(), tokenId), \"ERC721: transfer caller is not owner nor approved\");\r\n\r\n        _transfer(from, to, tokenId);\r\n\r\n    }\r\n\r\n    /**\r\n     * @dev Gives permission to `to` to transfer `tokenId` token to another account.\r\n     * The approval is cleared when the token is transferred.\r\n     *\r\n     * Only a single account can be approved at a time, so approving the zero address clears previous approvals.\r\n     *\r\n     * Requirements:\r\n     *\r\n     * - The caller must own the token or be an approved operator.\r\n     * - `tokenId` must exist.\r\n     *\r\n     * Emits an {Approval} event.\r\n     */\r\n    function approve(address to, uint256 tokenId) override external {\r\n\r\n        eternalParcelasStorage.setTokenApproval(to, tokenId);        \r\n        emit Approval(ownerOf(tokenId), to, tokenId);\r\n    }\r\n\r\n    /**\r\n     * @dev Returns the account approved for `tokenId` token.\r\n     *\r\n     * Requirements:\r\n     *\r\n     * - `tokenId` must exist.\r\n     */\r\n    function getApproved(uint256 tokenId) override public view returns (address) {\r\n\r\n        require(_exists(tokenId), \"ERC721: approved query for nonexistent token\");\r\n        return eternalParcelasStorage.getTokenApproval(tokenId);\r\n        \r\n    }\r\n\r\n    /**\r\n     * @dev Approve or remove `operator` as an operator for the caller.\r\n     * Operators can call {transferFrom} or {safeTransferFrom} for any token owned by the caller.\r\n     *\r\n     * Requirements:\r\n     *\r\n     * - The `operator` cannot be the caller.\r\n     *\r\n     * Emits an {ApprovalForAll} event.\r\n     */\r\n    function setApprovalForAll(address operator, bool _approved) override external {\r\n\r\n        _setApprovalForAll(_msgSender(), operator, _approved);\r\n    }\r\n\r\n    function _setApprovalForAll(address owner, address operator, bool _approved) internal {\r\n        require(owner != operator, \"ERC721: approve to caller\");\r\n\r\n        eternalParcelasStorage.setOperatorApproval(owner, operator, _approved);\r\n       \r\n        emit ApprovalForAll(owner, operator, _approved);\r\n    }\r\n\r\n    /**\r\n     * @dev Returns if the `operator` is allowed to manage all of the assets of `owner`.\r\n     *\r\n     * See {setApprovalForAll}\r\n     */\r\n    function isApprovedForAll(address owner, address operator) override public view returns (bool) {\r\n\r\n        return eternalParcelasStorage.getOperatorApproval(owner, operator);\r\n\r\n    }\r\n\r\n    /**\r\n     * @dev Safely transfers `tokenId` token from `from` to `to`.\r\n     *\r\n     * Requirements:\r\n     *\r\n     * - `from` cannot be the zero address.\r\n     * - `to` cannot be the zero address.\r\n     * - `tokenId` token must exist and be owned by `from`.\r\n     * - If the caller is not `from`, it must be approved to move this token by either {approve} or {setApprovalForAll}.\r\n     * - If `to` refers to a smart contract, it must implement {IERC721Receiver-onERC721Received}, which is called upon a safe transfer.\r\n     *\r\n     * Emits a {Transfer} event.\r\n     */\r\n    function safeTransferFrom(address from, address to, uint256 tokenId, bytes memory /*calldata*/ data) override public {\r\n\r\n        require(_isApprovedOrOwner(_msgSender(), tokenId), \"ERC721: transfer caller is not owner nor approved\");\r\n        _safeTransfer(from, to, tokenId, data);\r\n    }\r\n\r\n\r\n    /** FIN FUNCIONES IERC721 */\r\n\r\n    /**\r\n     * @dev Transfers `tokenId` from `from` to `to`.\r\n     *  As opposed to {transferFrom}, this imposes no restrictions on msg.sender.\r\n     *\r\n     * Requirements:\r\n     *\r\n     * - `to` cannot be the zero address.\r\n     * - `tokenId` token must be owned by `from`.\r\n     *\r\n     * Emits a {Transfer} event.\r\n     */\r\n    function _transfer(address from, address to, uint256 tokenId) internal virtual {\r\n\r\n        require(ParcelasERC721.ownerOf(tokenId) == from, \"ERC721: transfer from incorrect owner\");\r\n        require(to != address(0), \"ERC721: transfer to the zero address\");\r\n\r\n        _beforeTokenTransfer(from, to, tokenId);\r\n\r\n        // Clear approvals from the previous owner\r\n        _approve(address(0), tokenId);\r\n\r\n        eternalParcelasStorage.setBalance(from, eternalParcelasStorage.getBalance(from) - 1);\r\n        eternalParcelasStorage.setBalance(to, eternalParcelasStorage.getBalance(to) + 1);\r\n        \r\n        eternalParcelasStorage.setOwner(to, tokenId);\r\n        \r\n        emit Transfer(from, to, tokenId);\r\n\r\n        _afterTokenTransfer(from, to, tokenId);\r\n    }\r\n\r\n    /**\r\n     * @dev Approve `to` to operate on `tokenId`\r\n     *\r\n     * Emits a {Approval} event.\r\n     */\r\n    function _approve(address to, uint256 tokenId) internal virtual {\r\n\r\n        eternalParcelasStorage.setTokenApproval(to, tokenId);       \r\n        emit Approval(ParcelasERC721.ownerOf(tokenId), to, tokenId);\r\n    }\r\n\r\n    /** FUNCIONES IERC721Metadata */\r\n\r\n    /**\r\n     * @dev See {IERC721Metadata-name}.\r\n     */\r\n    function name() public view virtual override returns (string memory) {\r\n        return eternalParcelasStorage.getName();\r\n    }\r\n\r\n    /**\r\n     * @dev See {IERC721Metadata-symbol}.\r\n     */\r\n    function symbol() public view virtual override returns (string memory) {\r\n        return eternalParcelasStorage.getSymbol();\r\n    }\r\n\r\n    /**\r\n     * @dev See {IERC721Metadata-tokenURI}.\r\n     */\r\n    function tokenURI(uint256 tokenId) public view virtual override returns (string memory) {\r\n        require(_exists(tokenId), \"ERC721Metadata: URI query for nonexistent token\");\r\n\r\n        string memory baseURI = _baseURI();\r\n        return bytes(baseURI).length > 0 ? string(abi.encodePacked(baseURI, tokenId.toString())) : \"\";\r\n    }\r\n\r\n    /**\r\n     * @dev Base URI for computing {tokenURI}. If set, the resulting URI for each\r\n     * token will be the concatenation of the `baseURI` and the `tokenId`. Empty\r\n     * by default, can be overriden in child contracts.\r\n     */\r\n    function _baseURI() internal view virtual returns (string memory) {\r\n        return \"\";\r\n    }\r\n\r\n    // FIN FUNCIONES IERC721Metadata\r\n\r\n    /**\r\n     * @dev Returns whether `tokenId` exists.\r\n     *\r\n     * Tokens can be managed by their owner or approved accounts via {approve} or {setApprovalForAll}.\r\n     *\r\n     * Tokens start existing when they are minted (`_mint`),\r\n     * and stop existing when they are burned (`_burn`).\r\n     */\r\n    function _exists(uint256 tokenId) internal view virtual returns (bool) {\r\n        return eternalParcelasStorage.getOwner(tokenId) != address(0);        \r\n    }\r\n\r\n\r\n    /**\r\n     * @dev Hook that is called before any token transfer. This includes minting\r\n     * and burning.\r\n     *\r\n     * Calling conditions:\r\n     *\r\n     * - When `from` and `to` are both non-zero, ``from``'s `tokenId` will be\r\n     * transferred to `to`.\r\n     * - When `from` is zero, `tokenId` will be minted for `to`.\r\n     * - When `to` is zero, ``from``'s `tokenId` will be burned.\r\n     * - `from` and `to` are never both zero.\r\n     *\r\n     * To learn more about hooks, head to xref:ROOT:extending-contracts.adoc#using-hooks[Using Hooks].\r\n     */\r\n    function _beforeTokenTransfer(address from, address to, uint256 tokenId) internal virtual {}\r\n\r\n    /**\r\n     * @dev Hook that is called after any transfer of tokens. This includes\r\n     * minting and burning.\r\n     *\r\n     * Calling conditions:\r\n     *\r\n     * - when `from` and `to` are both non-zero.\r\n     * - `from` and `to` are never both zero.\r\n     *\r\n     * To learn more about hooks, head to xref:ROOT:extending-contracts.adoc#using-hooks[Using Hooks].\r\n     */\r\n    function _afterTokenTransfer(address from, address to, uint256 tokenId) internal virtual {}\r\n\r\n    /**\r\n     * @dev Safely transfers `tokenId` token from `from` to `to`, checking first that contract recipients\r\n     * are aware of the ERC721 protocol to prevent tokens from being forever locked.\r\n     *\r\n     * `_data` is additional data, it has no specified format and it is sent in call to `to`.\r\n     *\r\n     * This internal function is equivalent to {safeTransferFrom}, and can be used to e.g.\r\n     * implement alternative mechanisms to perform token transfer, such as signature-based.\r\n     *\r\n     * Requirements:\r\n     *\r\n     * - `from` cannot be the zero address.\r\n     * - `to` cannot be the zero address.\r\n     * - `tokenId` token must exist and be owned by `from`.\r\n     * - If `to` refers to a smart contract, it must implement {IERC721Receiver-onERC721Received}, which is called upon a safe transfer.\r\n     *\r\n     * Emits a {Transfer} event.\r\n     */\r\n    function _safeTransfer(address from, address to, uint256 tokenId, bytes memory _data) internal {\r\n        _transfer(from, to, tokenId);\r\n        require(_checkOnERC721Received(from, to, tokenId, _data), \"ERC721: transfer to non ERC721Receiver implementer\");\r\n    }\r\n\r\n    /**\r\n     * @dev Returns whether `spender` is allowed to manage `tokenId`.\r\n     *\r\n     * Requirements:\r\n     *\r\n     * - `tokenId` must exist.\r\n     */\r\n    function _isApprovedOrOwner(address spender, uint256 tokenId) internal view returns (bool) {\r\n        require(_exists(tokenId), \"ERC721: operator query for nonexistent token\");\r\n        address owner = ParcelasERC721.ownerOf(tokenId);\r\n        return (spender == owner || getApproved(tokenId) == spender || isApprovedForAll(owner, spender));\r\n    }\r\n\r\n    /**\r\n     * @dev Internal function to invoke {IERC721Receiver-onERC721Received} on a target address.\r\n     * The call is not executed if the target address is not a contract.\r\n     *\r\n     * @param from address representing the previous owner of the given token ID\r\n     * @param to target address that will receive the tokens\r\n     * @param tokenId uint256 ID of the token to be transferred\r\n     * @param _data bytes optional data to send along with the call\r\n     * @return bool whether the call correctly returned the expected magic value\r\n     */\r\n    function _checkOnERC721Received(address from, address to, uint256 tokenId, bytes memory _data) private returns (bool) {\r\n        if (to.isContract()) {\r\n            try IERC721Receiver(to).onERC721Received(_msgSender(), from, tokenId, _data) returns (bytes4 retval) {\r\n                return retval == IERC721Receiver.onERC721Received.selector;\r\n            } catch (bytes memory reason) {\r\n                if (reason.length == 0) {\r\n                    revert(\"ERC721: transfer to non ERC721Receiver implementer\");\r\n                } else {\r\n                    assembly {\r\n                        revert(add(32, reason), mload(reason))\r\n                    }\r\n                }\r\n            }\r\n        } else {\r\n            return true;\r\n        }\r\n    }\r\n\r\n\r\n    // Funciones para crear o interactuar con los drones(tokens)\r\n    // No es onlyOwner porque cualquier address puede crear drones (sino solo podria crear el dueno del contrato)\r\n\r\n    function mint(uint256 _alturaMaxima, uint256 _alturaMinima, uint _pesticidaAceptado) public  returns (bool) {\r\n\r\n        eternalParcelasStorage.incrementTokenId();\r\n        uint256 _tokenId = eternalParcelasStorage.getCurrentTokenId();\r\n        \r\n        _mint(_msgSender(), _tokenId, _alturaMaxima, _alturaMinima, _pesticidaAceptado);\r\n\r\n        return true;\r\n    }\r\n\r\n    function _mint(address to, uint256 tokenId, uint256 _alturaMaxima, uint256 _alturaMinima, uint _pesticidaAceptado) internal {\r\n        require(to != address(0), \"ERC721: mint to the zero address\");\r\n        require(!_exists(tokenId), \"ERC721: token already minted\");\r\n\r\n        _beforeTokenTransfer(address(0), to, tokenId);\r\n\r\n        eternalParcelasStorage.setBalance(to, eternalParcelasStorage.getBalance(to) + 1);\r\n        eternalParcelasStorage.setOwner(to, tokenId);\r\n\r\n        DataLibrary.Parcela memory specificationsParcela; \r\n        specificationsParcela.alturaMaxima = _alturaMaxima;\r\n        specificationsParcela.alturaMinima = _alturaMinima;\r\n        specificationsParcela.pesticidaAceptado = DataLibrary.Pesticidas(_pesticidaAceptado);            \r\n       \r\n\r\n        eternalParcelasStorage.setParcelaSpecification(tokenId, specificationsParcela);\r\n        eternalParcelasStorage.addParcelaIdByOwnew(to, tokenId);\r\n\r\n        emit Transfer(address(0), to, tokenId);\r\n    }\r\n\r\n    function getParcelasIdByOwner(address _owner) public view returns (uint256[] memory) {\r\n        return eternalParcelasStorage.getParcelasIdByOwner(_owner);\r\n    }\r\n\r\n    function getParcelaSpecification(uint256 _parcelaId) public view returns(DataLibrary.Parcela memory) {\r\n        require(_exists(_parcelaId), \"ERC721: token doesnt exist\");\r\n        return eternalParcelasStorage.getParcelaSpecification(_parcelaId);\r\n    }\r\n}",
  "sourcePath": "C:\\Users\\ernesto.romero\\OneDrive\\Documentos\\proyectos_blockchain\\unir_drones\\contracts\\ParcelasERC721.sol",
  "compiler": {
    "name": "solc",
    "version": "0.8.5+commit.a4f2e591.Emscripten.clang"
  },
  "schemaVersion": "3.4.2",
  "updatedAt": "2022-04-03T12:01:17.131Z",
  "devdoc": {
    "kind": "dev",
    "methods": {
      "approve(address,uint256)": {
        "details": "Gives permission to `to` to transfer `tokenId` token to another account. The approval is cleared when the token is transferred. Only a single account can be approved at a time, so approving the zero address clears previous approvals. Requirements: - The caller must own the token or be an approved operator. - `tokenId` must exist. Emits an {Approval} event."
      },
      "balanceOf(address)": {
        "details": "Returns the number of tokens in ``owner``'s account."
      },
      "getApproved(uint256)": {
        "details": "Returns the account approved for `tokenId` token. Requirements: - `tokenId` must exist."
      },
      "isApprovedForAll(address,address)": {
        "details": "Returns if the `operator` is allowed to manage all of the assets of `owner`. See {setApprovalForAll}"
      },
      "name()": {
        "details": "See {IERC721Metadata-name}."
      },
      "owner()": {
        "details": "Returns the address of the current owner."
      },
      "ownerOf(uint256)": {
        "details": "Returns the owner of the `tokenId` token. Requirements: - `tokenId` must exist."
      },
      "renounceOwnership()": {
        "details": "Leaves the contract without owner. It will not be possible to call `onlyOwner` functions anymore. Can only be called by the current owner. NOTE: Renouncing ownership will leave the contract without an owner, thereby removing any functionality that is only available to the owner."
      },
      "safeTransferFrom(address,address,uint256)": {
        "details": "Safely transfers `tokenId` token from `from` to `to`, checking first that contract recipients are aware of the ERC721 protocol to prevent tokens from being forever locked. Requirements: - `from` cannot be the zero address. - `to` cannot be the zero address. - `tokenId` token must exist and be owned by `from`. - If the caller is not `from`, it must be have been allowed to move this token by either {approve} or {setApprovalForAll}. - If `to` refers to a smart contract, it must implement {IERC721Receiver-onERC721Received}, which is called upon a safe transfer. Emits a {Transfer} event."
      },
      "safeTransferFrom(address,address,uint256,bytes)": {
        "details": "Safely transfers `tokenId` token from `from` to `to`. Requirements: - `from` cannot be the zero address. - `to` cannot be the zero address. - `tokenId` token must exist and be owned by `from`. - If the caller is not `from`, it must be approved to move this token by either {approve} or {setApprovalForAll}. - If `to` refers to a smart contract, it must implement {IERC721Receiver-onERC721Received}, which is called upon a safe transfer. Emits a {Transfer} event."
      },
      "setApprovalForAll(address,bool)": {
        "details": "Approve or remove `operator` as an operator for the caller. Operators can call {transferFrom} or {safeTransferFrom} for any token owned by the caller. Requirements: - The `operator` cannot be the caller. Emits an {ApprovalForAll} event."
      },
      "supportsInterface(bytes4)": {
        "details": "See {IERC165-supportsInterface}."
      },
      "symbol()": {
        "details": "See {IERC721Metadata-symbol}."
      },
      "tokenURI(uint256)": {
        "details": "See {IERC721Metadata-tokenURI}."
      },
      "transferFrom(address,address,uint256)": {
        "details": "Transfers `tokenId` token from `from` to `to`. WARNING: Usage of this method is discouraged, use {safeTransferFrom} whenever possible. Requirements: - `from` cannot be the zero address. - `to` cannot be the zero address. - `tokenId` token must be owned by `from`. - If the caller is not `from`, it must be approved to move this token by either {approve} or {setApprovalForAll}. Emits a {Transfer} event."
      },
      "transferOwnership(address)": {
        "details": "Transfers ownership of the contract to a new account (`newOwner`). Can only be called by the current owner."
      }
    },
    "version": 1
  },
  "userdoc": {
    "kind": "user",
    "methods": {},
    "version": 1
  }
}