{
  "contractName": "ProxyParcelas",
  "abi": [
    {
      "inputs": [
        {
          "internalType": "address",
          "name": "_delegate",
          "type": "address"
        }
      ],
      "stateMutability": "nonpayable",
      "type": "constructor"
    },
    {
      "stateMutability": "payable",
      "type": "fallback"
    },
    {
      "inputs": [
        {
          "internalType": "address",
          "name": "newDelegateAddress",
          "type": "address"
        }
      ],
      "name": "upgradeDelegate",
      "outputs": [],
      "stateMutability": "nonpayable",
      "type": "function"
    }
  ],
  "bytecode": "0x608060405233600160006101000a81548173ffffffffffffffffffffffffffffffffffffffff021916908373ffffffffffffffffffffffffffffffffffffffff16021790555034801561005157600080fd5b50604051610330380380610330833981810160405281019061007391906100ce565b806000806101000a81548173ffffffffffffffffffffffffffffffffffffffff021916908373ffffffffffffffffffffffffffffffffffffffff16021790555050610149565b6000815190506100c881610132565b92915050565b6000602082840312156100e4576100e361012d565b5b60006100f2848285016100b9565b91505092915050565b60006101068261010d565b9050919050565b600073ffffffffffffffffffffffffffffffffffffffff82169050919050565b600080fd5b61013b816100fb565b811461014657600080fd5b50565b6101d8806101586000396000f3fe6080604052600436106100225760003560e01c80632da4e75c1461004c57610023565b5b6000543660008037600080366000845af43d6000803e8060008114610047573d6000f35b600080fd5b34801561005857600080fd5b50610073600480360381019061006e9190610127565b610075565b005b600160009054906101000a900473ffffffffffffffffffffffffffffffffffffffff1673ffffffffffffffffffffffffffffffffffffffff163373ffffffffffffffffffffffffffffffffffffffff16146100cf57600080fd5b806000806101000a81548173ffffffffffffffffffffffffffffffffffffffff021916908373ffffffffffffffffffffffffffffffffffffffff16021790555050565b6000813590506101218161018b565b92915050565b60006020828403121561013d5761013c610186565b5b600061014b84828501610112565b91505092915050565b600061015f82610166565b9050919050565b600073ffffffffffffffffffffffffffffffffffffffff82169050919050565b600080fd5b61019481610154565b811461019f57600080fd5b5056fea2646970667358221220fc9bd18655f57735261742cca532c714d9988db00d12dc963aa13dbac8864a3b64736f6c63430008050033",
  "immutableReferences": {},
  "source": "// SPDX-License-Identifier: MIT\r\npragma solidity ^0.8.0;\r\n\r\n\r\ncontract ProxyParcelas {\r\n    \r\n    address private delegate;\r\n    address private owner = msg.sender;\r\n    \r\n    \r\n    constructor(address _delegate) {\r\n        delegate = _delegate;\r\n    }\r\n\r\n    function upgradeDelegate(address newDelegateAddress) public {\r\n        require(msg.sender == owner);\r\n        delegate = newDelegateAddress;\r\n    }\r\n\r\n    fallback() external payable {\r\n        assembly {\r\n            let _target := sload(0)\r\n            calldatacopy(0x0, 0x0, calldatasize())\r\n            let result := delegatecall(gas(), _target, 0x0, calldatasize(), 0x0, 0)\r\n            returndatacopy(0x0, 0x0, returndatasize())\r\n            switch result case 0 {revert(0, 0)} default {return (0, returndatasize())}\r\n        }\r\n    }\r\n    \r\n\r\n\r\n}",
  "sourcePath": "C:\\Users\\ernesto.romero\\OneDrive\\Documentos\\proyectos_blockchain\\unir_drones\\contracts\\ProxyParcelas.sol",
  "compiler": {
    "name": "solc",
    "version": "0.8.5+commit.a4f2e591.Emscripten.clang"
  },
  "schemaVersion": "3.4.2",
  "updatedAt": "2022-04-03T12:01:17.194Z",
  "devdoc": {
    "kind": "dev",
    "methods": {},
    "version": 1
  },
  "userdoc": {
    "kind": "user",
    "methods": {},
    "version": 1
  }
}